:020000040000FA
:060000000A128A110C280F
:10000800FE00030EF2000A08F3000A128A111628ED
:100018000A128A110F28F701F801F90183010A125F
:100028008A111729831203130C1F1B281C28372831
:1000380003101F1D031403182228262883120313F4
:100048001F152928831203131F110C131F1D2D2898
:100058002E2833281E08F1007108F90037281E08D9
:10006800F1007108F8000B1D3A283B2841289F1819
:100078003E283F2840289F140B118C1D44284528F2
:1000880073280A128A112E210A128A11F1007108A6
:10009800F70083120313851631307706031D5528A0
:1000A80056285D2879080A128A1138210A128A11FD
:1000B800702832307706031D622863286A2878087A
:1000C8000A128A1138210A128A11702862300A121B
:1000D8008A1138210A128A118312031385127308B0
:1000E8008A00720E8300FE0E7E0E0900831203132F
:1000F800A00096283F30831203139F05AC28831273
:1001080003131F083F3940389F00AC28831203139C
:100118001F083F3980389F00AC28C0308312031372
:100128009F04AC28831603130F0E0739F500F60158
:100138007608003A0319A12891287508043A03198A
:100148007E28023A03198328013A03198A2891283C
:100158002008F500F50DF50D1F087506C33975065D
:100168009F009F101F14740C83160313031C9F1306
:1001780003189F179F121F120800033083160317D6
:1001880088008901033083160313850086018701DF
:10019800880189018312031385018601870188017B
:1001A80089017030831603138F040F148B170B17F4
:1001B8000B118B16831203138C11831603138C15E2
:1001C8008C1681128111011581140110F40100307F
:1001D8000A128A117A200A128A11831203130C1345
:1001E800831603130C17080083120313A000201DA5
:1001F800FE28FF28082975088316031394000514A0
:1002080007168712871511297508760483160313B4
:10021800940085120716871287118312031320088A
:100228007404940008000A128A11C1200A128A1163
:10023800F401403083120313A1002108F500F601F0
:1002480024300A128A11F8200A128A112A290A125D
:100258008A110C2883160313141C332934292E29D8
:100268008312031313080800F000700883120313A5
:0402780093000800E7
:04400E00F420FF3F5C
:00000001FF
