:020000040000FA
:060000000A128A110C280F
:10000800FE00030EF2000A08F3000A128A111528EE
:100018000A128A110F28F801F90183010A128A11BC
:10002800FE28831203130C1F1A281B2820281E08D9
:10003800F0007008F8000C138C1D23282428812850
:100048001412141B282829282D28941F2C282D2801
:1000580034281308F0007008F900141394131416C8
:1000680083160313141939283A285928941A3D2855
:100078003E285928831203131308F0007008F9006A
:10008800141683160313141C4A284B284528831278
:100098000313130886000330F1009730F000F00BCB
:1000A8005328F10B532858287E28141D5C285D28F6
:1000B8007E28941A602861287E2883120313130867
:1000C800F0007008F90083160313141078088312DF
:1000D8000313930014160330F1009730F000F00B6F
:1000E8007328F10B732878288316031314187D28B6
:1000F8007E287828831203138C1173088A00720EE5
:100108008300FE0E7E0E0900F700A2283F308312FE
:1001180003139F05B828831203131F083F3940387B
:100128009F00B828831203131F083F3980389F00A7
:10013800B828C030831203139F04B828831603130A
:100148000F0E0739F500F6017608003A0319AD28B5
:100158009D287508043A03198A28023A03198F283A
:10016800013A031996289D287708F500F50DF50D35
:100178001F087506C33975069F009F101F14740C5D
:1001880083160313031C9F1303189F179F121F1234
:10019800080001308316031788008901013083168F
:1001A80003138500860188018312031385018601E4
:1001B80088017030831603138F040F14F401003084
:1001C8000A128A1188200A128A118B170B178312B8
:1001D80003130C13831603130C17831203138C11C8
:1001E800831603138C1520300A128A1119210A125A
:1001F8008A1108000A128A11CD200A128A11831264
:1002080003139F18082909290A299F141A308312F1
:100218000313A100F730A000A00B1029A10B10298F
:10022800152903290A128A110C28F4007408831668
:1002380003139300263083120313940083160313C9
:0C02480091018030940087150716080013
:04400E00F420FF3F5C
:00000001FF
