:020000040000FA
:060000000A128A110C280F
:10000800FE00030EF1000A08F2000A128A114B2AB8
:100018000A128A110F2883120313B901BA01BB010E
:10002800BC01BD01BE0183010A128A111B280A12F4
:100038008A1178220A128A110A128A1114230A12C2
:100048008A110A128A11A4220A128A11003A031983
:100058002E282F28A8283B300A128A1116220A12A5
:100068008A113A300A128A1116220A128A113D3070
:100078000A128A1116220A128A113C300A128A11AF
:1000880016220A128A1139300A128A1116220A1205
:100098008A11831203133B083A07AF00B001B00D71
:1000A8003D082F07B1000030031801303007B200B7
:1000B8003C083107B3000030031801303207B400A0
:1000C800FF303305B50000303405B6003908B700F5
:1000D800B80136083806031D732835083706031D8E
:1000E8007628772890283B300A128A11C6200A12EF
:1000F8008A1107300A128A11F5220A128A113D3034
:100108000A128A11C6200A128A1107300A128A11A5
:10011800F5220A128A11A82801300A128A11F5223A
:100128000A128A1107300A128A11F5220A128A1154
:1001380001300A128A11F5220A128A1107300A12AE
:100148008A11F5220A128A113E300A128A11C62033
:100158000A128A1107300A128A11F5220A128A1124
:10016800063083120313B1001330B000AD30AF0076
:10017800AF0BBC28B00BBC28B10BBC2820280A1236
:100188008A110C2883120313AE006430A0000030DB
:10019800A1002E08840083130008A800A9012808DC
:1001A800A2002908A3000A128A1152210A128A11F0
:1001B800831203132008AA002A08AD000A30A00001
:1001C8000030A1002D08A800A9012808F30029087B
:1001D800F4009C30F500FF30F6000A128A11D02294
:1001E8000A128A11831203132E088400831300084D
:1001F8007307A20074080318740AA3000A128A116C
:1002080052210A128A11831203132008AA002A080D
:10021800AB000A30A0000030A1002D08A800A901F9
:100228002808F3002908F4009C30F500FF30F60098
:100238000A128A11D0220A128A11831203132E0875
:100248008400831300087307A20074080318740A53
:10025800A3000A128A11BB210A128A1183120313FE
:100268002008AA002A08AC002D08303E0A128A117C
:100278004F230A128A11831203132B08303E0A12E5
:100288008A114F230A128A11831203132C08303E55
:100298000A128A114F230A128A11080083120313C3
:1002A800A501A11F582959296029A009A109A00A57
:1002B8000319A10AA501A50AA31F632964296D29A9
:1002C800A209A309A20A0319A30A0130F9007908AF
:1002D800A506A601A7012008210403197429752978
:1002E800AC29A401A40A832901300310A00DA10D93
:1002F800FF3E031D79290130F9007908A407A11FE1
:1003080086298729782901300310A60DA70DFF3EFD
:10031800031D882921082302031D9429200822028D
:10032800031C972998299F292008A2022108031C49
:10033800A303A302261401300310A10CA00CFF3E56
:10034800031DA0290130A402031DAB29AC2987296C
:1003580025080319B029B129B629A609A709A60AAB
:100368000319A70A2708A1002608A000080083127D
:100378000313A501A31FC129C229C929A209A309D9
:10038800A20A0319A30AA501A50AA11FCC29CD29F0
:10039800D229A009A109A00A0319A10A2008210449
:1003A8000319D729D829072AA401A40AE629013064
:1003B8000310A00DA10DFF3E031DDC290130F9003B
:1003C8007908A407A11FE929EA29DB2921082302C2
:1003D800031DF02920082202031CF329F429FA2915
:1003E8002008A2022108031CA303A3020130031062
:1003F800A10CA00CFF3E031DFB290130A402031D24
:10040800062A072AEA29250803190B2A0C2A112A81
:10041800A209A309A20A0319A30A2308A100220812
:10042800A0000800F6007608840083138001F50117
:1004380083120313091C212A222A1C2A8F018E01E8
:100448000918272A282A242A33300E02031C2D2AA9
:100458002E2A402A0130F3007508073C013E362A4F
:100468000310F30DFF3E031D342A7308F4007608C9
:1004780084007408831380040130F3007308F507BF
:1004880008307502031C492A4A2A1C2A08000B1C3A
:100498004E2A4F2A5A2A83120313061C542A552A15
:1004A8005A2A0130F0007008BE070B100B1C5D2A99
:1004B8005E2A672A83120313861C632A642A672A22
:1004C8000130BE020B100B10831203138C1E6D2A11
:1004D8006E2A712A1A0888008C1272088A00710E16
:1004E8008300FE0E7E0E090083160317880189011A
:1004F80083160313850103308600880183120313D2
:100508008501860188010A128A112F230A128A118D
:100518007030831603138F040F148B170B108B1571
:100528000B17831203138C12831603138C161614DD
:10053800961410308312031390008F018E01080067
:10054800831203138F018E0110140918AC2AAD2AE7
:10055800B32A64300E02031CB22AB32AA92A6430D3
:100568000E02031CB82AB92ABB2A0030CF2A8F01F1
:100578008E01091CC02AC12AC72A64300E02031C36
:10058800C62AC72ABD2A64300E02031CCC2ACD2AEB
:10059800CE2AB92A01300800F701F801731CD52AC0
:1005A800D62ADC2A7508F7070318F80A7608F80728
:1005B80001300310F50DF60DFF3E031DDD2A013055
:1005C8000310F40CF30CFF3E031DE42A73087404B3
:1005D800031DEF2AF02AD22A7808F4007708F300DE
:1005E8000800F500072B750884000A128A114123B8
:1005F8000A128A110A128A114F230A128A1101302B
:10060800F4007408F507750884000A128A1141235A
:100618000A128A11003A031D122B132BF72A08001D
:100628008316031309108312031309104130F400D1
:10063800EE30F300F30B1E2BF40B1E2B000083127D
:10064800031309141030F300F30B282B0000831652
:1006580003130914080083160313071387170C30B4
:10066800990018119816831203131816831603138A
:100678001812831203139817080003308A0004081D
:10068800840A820700344534523452344F34523489
:1006980000340A340034F3007308831203139900FA
:0E06A80083160313981C592B5A2B542B080051
:04400E00F420FF3F5C
:00000001FF
