:020000040000FA
:100000000A128A11E92FFF1B0D2883137F1883170B
:100010000008840A0319FF0A080000308A00040857
:10002000840A820700344534523452344F345234F7
:0200300000349A
:1008D800F1008312031389147108880009151A306E
:1008E800F000F00B752C00008312031309110800A7
:1008F8007E088A007F0882000A128A117C240A1264
:100908008A118000840A04087D0603190034FF0A4E
:100918000319FE0A802CF20083120313891072084F
:10092800880009150B30F1006230F000F00B9A2CAA
:10093800F10B9A2C00008312031309110800831687
:10094800031309108312031309104130F100EE302C
:10095800F000F00BAD2CF10BAD2C0000831203134B
:1009680009141030F000F00BB72C000083160313A5
:1009780009140800831603178801890183160313D5
:1009880085018601880189100911831203138501E5
:10099800860188017030831603138F040F141030FA
:1009A8008312031390008F018E01080052344834DB
:1009B8002034203420343D342034303430342E3444
:1009C80030342034253420340034543445344D3404
:1009D800503420343D342034303430342E343034E4
:1009E8002034433420340034F5007503031DFD2CF6
:1009F800FE2C092D73087F3EF4007408F600760873
:100A08000A128A118F240A128A1102307506031DF0
:100A18000E2D0F2D1A2D7308BF3EF4007408F60032
:100A280076080A128A118F240A128A110800302DBA
:100A38007308FF00720884000A128A1103200A1240
:100A48008A110A128A116C240A128A110130F207DB
:100A58000318F30A0030F307730883120313FF0027
:100A6800720884000A128A1103200A128A11003AB5
:100A7800031D3F2D402D1C2D0800831203138F01E9
:100A88008E0110140918492D4A2D502D64300E027C
:100A9800031C4F2D502D462D64300E02031C552D7E
:100AA800562D582D00306C2D8F018E01091C5D2D9F
:100AB8005E2D642D64300E02031C632D642D5A2DA7
:100AC80064300E02031C692D6A2D6B2D562D0130E2
:100AD8000800F300730884008001F20183120313F5
:100AE800091C772D782D722D8F018E0109187D2D07
:100AF8007E2D7A2D33300E02031C832D842D952DE7
:100B08000130F0007208073C013E8C2D0310F00DF7
:100B1800FF3E031D8A2D7008F100730884007108D8
:100B280080040130F0007008F20708307202031CDC
:100B38009E2D9F2D722D08008312031389108801A2
:100B48008230F400DD30F300F30BA82DF40BA82D50
:100B5800AD2D30300A128A118F240A128A110D30F5
:100B6800F400FB30F300F30BB72DF40BB72DBC2DBD
:100B780030300A128A118F240A128A110D30F400BB
:100B8800FB30F300F30BC62DF40BC62DCB2D303004
:100B98000A128A118F240A128A1138300A128A110D
:100BA8008F240A128A1106300A128A118F240A1217
:100BB8008A110C300A128A118F240A128A11013004
:100BC8000A128A118F240A128A110800F601F31FEB
:100BD800EE2DEF2DF62DF209F309F20A0319F30AA7
:100BE800F601F60AF11FF92DFA2DFF2DF009F1098A
:100BF800F00A0319F10A700871040319042E052E6E
:100C0800342EF501F50A132E01300310F00DF10D05
:100C1800FF3E031D092E0130F4007408F507F11F8B
:100C2800162E172E082E71087302031D1D2E70082C
:100C38007202031C202E212E272E7008F202710842
:100C4800031CF303F30201300310F10CF00CFF3E18
:100C5800031D282E0130F502031D332E342E172EC6
:100C680076080319382E392E3E2EF209F309F20AB6
:100C78000319F30A7308F1007208F0000800F6017E
:100C8800F11F472E482E4F2EF009F109F00A0319DB
:100C9800F10AF601F60AF31F522E532E5C2EF209C2
:100CA800F309F20A0319F30A0130F4007408F6068E
:100CB800F701F801700871040319632E642E9B2E46
:100CC800F501F50A722E01300310F00DF10DFF3E0B
:100CD800031D682E0130F4007408F507F11F752E06
:100CE800762E672E01300310F70DF80DFF3E031D19
:100CF800772E71087302031D832E70087202031C7D
:100D0800862E872E8E2E7008F2027108031CF303BC
:100D1800F302771401300310F10CF00CFF3E031DB1
:100D28008F2E0130F502031D9A2E9B2E762E760803
:100D380003199F2EA02EA52EF709F809F70A031903
:100D4800F80A7808F1007708F00008000A128A11FA
:100D5800BE240A128A11831203138F018E010A120C
:100D68008A11A0250A128A110A128A11A3240A12CA
:100D78008A110A128A1141250A128A11003A0319A6
:100D8800C62EC72EB12F7B300A128A116D250A1282
:100D98008A117A300A128A116D250A128A117D3059
:100DA8000A128A116D250A128A117C300A128A11D8
:100DB8006D250A128A1179300A128A116D250A12D4
:100DC8008A117B087A0783120313BE00BF01BF0D87
:100DD8007D083E07C0000030031801303F07C100FE
:100DE8007C084007C2000030031801304107C300E7
:100DF800FF304205C40000304305C5007908C6002D
:100E0800C70145084706031D0B2F44084606031D66
:100E18000E2F0F2F8E2F0A30F0000030F1007D08C2
:100E2800BE00BF013E08F2003F08F3000A128A1113
:100E380043260A128A117008303E83120313C00039
:100E48004008B6000A30F0000030F1007D08BE000E
:100E5800BF013E08F2003F08F3000A128A11EA2592
:100E68000A128A117008303E83120313C00040082A
:100E7800B7000A30F0000030F1007B08BE00BF0167
:100E88003E08F2003F08F3000A128A1143260A12AC
:100E98008A117008303E83120313C0004008A7006F
:100EA8000A30F0000030F1007B08BE00BF013E08A8
:100EB800F2003F08F3000A128A11EA250A128A1181
:100EC8007008303E83120313C0004008A800F301E5
:100ED800F30A01300A128A11F8240A128A112F30F3
:100EE800F2000030F3000A128A111B250A128A1137
:100EF800F301F30A02300A128A11F8240A128A113D
:100F08002030F2000030F3000A128A111B250A1261
:100F18008A11D32FF301F30A01300A128A11F82437
:100F28000A128A110130F2008030F3000A128A1185
:100F38001B250A128A11F301F30A02300A128A11D8
:100F4800F8240A128A110130F2008030F3000A12E4
:100F58008A111B250A128A11D32FF301F30A0130D3
:100F68000A128A11F8240A128A110130F20080301C
:100F7800F3000A128A111B250A128A11F301F30AD7
:100F880002300A128A11F8240A128A110130F2007A
:100F98008030F3000A128A111B250A128A11831263
:100FA80003131010023083120313C0000430BF0073
:100FB800B930BE00BE0BDE2FBF0BDE2FC00BDE2FFD
:100FC800E52FB82E0A128A11002883133E30FD003F
:100FD8000430FE00DA30FF00203084000A128A1143
:100FE80080240A128A11F901FA01FB01FC01FD01B2
:080FF80083010A128A11AA2EDE
:04400E00F420FF3F5C
:00000001FF
