:020000040000FA
:100000000A128A11E92FFF1B0D2883137F1883170B
:100010000008840A0319FF0A080000308A00040857
:10002000840A820700344534523452344F345234F7
:0200300000349A
:1008E000F1008312031389147108880009151A3066
:1008F000F000F00B792C000083120313091108009B
:100900007E088A007F0882000A128A1180240A1257
:100910008A118000840A04087D0603190034FF0A46
:100920000319FE0A842CF200831203138910720843
:10093000880009150B30F1006230F000F00B9E2C9E
:10094000F10B9E2C0000831203130911080083167B
:10095000031309108312031309104130F100EE3024
:10096000F000F00BB12CF10BB12C0000831203133B
:1009700009141030F000F00BBB2C00008316031399
:1009800009140800831603178801890183160313CD
:1009900085018601880189100911831203138501DD
:1009A000860188017030831603138F040F141030F2
:1009B0008312031390008F018E01080052344834D3
:1009C0002034203420343D342034303430342E343C
:1009D00030342034253420340034543445344D34FC
:1009E000503420343D342034303430342E343034DC
:1009F0002034433420340034F5007503031D012DE9
:100A0000022D0D2D73087F3EF4007408F600760861
:100A10000A128A1193240A128A1102307506031DE4
:100A2000122D132D1E2D7308BF3EF4007408F6001E
:100A300076080A128A1193240A128A110800342DAA
:100A40007308FF00720884000A128A1103200A1238
:100A50008A110A128A1170240A128A110130F207CF
:100A60000318F30A0030F307730883120313FF001F
:100A7000720884000A128A1103200A128A11003AAD
:100A8000031D432D442D202D0800831203138F01D5
:100A90008E01101409184D2D4E2D542D64300E0268
:100AA000031C532D542D4A2D64300E02031C592D66
:100AB0005A2D5C2D0030702D8F018E01091C612D87
:100AC000622D682D64300E02031C672D682D5E2D8B
:100AD00064300E02031C6D2D6E2D6F2D5A2D0130CA
:100AE0000800F300730884008001F20183120313ED
:100AF000091C7B2D7C2D762D8F018E010918812DEF
:100B0000822D7E2D33300E02031C872D882D992DCA
:100B10000130F0007208073C013E902D0310F00DEB
:100B2000FF3E031D8E2D7008F100730884007108CC
:100B300080040130F0007008F20708307202031CD4
:100B4000A22DA32D762D080083120313891088018E
:100B50008230F400DD30F300F30BAC2DF40BAC2D40
:100B6000B12D30300A128A1193240A128A110D30E5
:100B7000F400FB30F300F30BBB2DF40BBB2DC02DA9
:100B800030300A128A1193240A128A110D30F400AF
:100B9000FB30F300F30BCA2DF40BCA2DCF2D3030F0
:100BA0000A128A1193240A128A1138300A128A1101
:100BB00093240A128A1106300A128A1193240A1207
:100BC0008A110C300A128A1193240A128A110130F8
:100BD0000A128A1193240A128A110800F601F31FDF
:100BE000F22DF32DFA2DF209F309F20A0319F30A93
:100BF000F601F60AF11FFD2DFE2D032EF009F10975
:100C0000F00A0319F10A700871040319082E092E5D
:100C1000382EF501F50A172E01300310F00DF10DF5
:100C2000FF3E031D0D2E0130F4007408F507F11F7F
:100C30001A2E1B2E0C2E71087302031D212E700814
:100C40007202031C242E252E2B2E7008F20271082E
:100C5000031CF303F30201300310F10CF00CFF3E10
:100C6000031D2C2E0130F502031D372E382E1B2EAE
:100C7000760803193C2E3D2E422EF209F309F20AA2
:100C80000319F30A7308F1007208F0000800F60176
:100C9000F11F4B2E4C2E532EF009F109F00A0319C7
:100CA000F10AF601F60AF31F562E572E602EF209AE
:100CB000F309F20A0319F30A0130F4007408F60686
:100CC000F701F801700871040319672E682E9F2E32
:100CD000F501F50A762E01300310F00DF10DFF3EFF
:100CE000031D6C2E0130F4007408F507F11F792EF6
:100CF0007A2E6B2E01300310F70DF80DFF3E031D09
:100D00007B2E71087302031D872E70087202031C6C
:100D10008A2E8B2E922E7008F2027108031CF303A8
:100D2000F302771401300310F10CF00CFF3E031DA9
:100D3000932E0130F502031D9E2E9F2E7A2E7608EB
:100D40000319A32EA42EA92EF709F809F70A0319EF
:100D5000F80A7808F1007708F00008000A128A11F2
:100D6000C2240A128A11831203138F018E010A1200
:100D70008A11A4250A128A110A128A11A7240A12BA
:100D80008A110A128A1145250A128A11003A03199A
:100D9000CA2ECB2EB52F7B300A128A1171250A126A
:100DA0008A117A300A128A1171250A128A117D304D
:100DB0000A128A1171250A128A117C300A128A11CC
:100DC00071250A128A1179300A128A1171250A12C4
:100DD0008A117B087A0783120313BE00BF01BF0D7F
:100DE0007D083E07C0000030031801303F07C100F6
:100DF0007C084007C2000030031801304107C300DF
:100E0000FF304205C40000304305C5007908C60024
:100E1000C70145084706031D0F2F44084606031D5A
:100E2000122F132F922F0A30F0000030F1007D08AE
:100E3000BE00BF013E08F2003F08F3000A128A110B
:100E400047260A128A117008303E83120313C0002D
:100E50004008B6000A30F0000030F1007D08BE0006
:100E6000BF013E08F2003F08F3000A128A11EE2586
:100E70000A128A117008303E83120313C000400822
:100E8000B7000A30F0000030F1007B08BE00BF015F
:100E90003E08F2003F08F3000A128A1147260A12A0
:100EA0008A117008303E83120313C0004008A70067
:100EB0000A30F0000030F1007B08BE00BF013E08A0
:100EC000F2003F08F3000A128A11EE250A128A1175
:100ED0007008303E83120313C0004008A800F301DD
:100EE000F30A01300A128A11FC240A128A112F30E7
:100EF000F2000030F3000A128A111F250A128A112B
:100F0000F301F30A02300A128A11FC240A128A1130
:100F10002030F2000030F3000A128A111F250A1255
:100F20008A11D72FF301F30A01300A128A11FC2427
:100F30000A128A110130F2008030F3000A128A117D
:100F40001F250A128A11F301F30A02300A128A11CC
:100F5000FC240A128A110130F2008030F3000A12D8
:100F60008A111F250A128A11D72FF301F30A0130C3
:100F70000A128A11FC240A128A110130F200803010
:100F8000F3000A128A111F250A128A11F301F30ACB
:100F900002300A128A11FC240A128A110130F2006E
:100FA0008030F3000A128A111F250A128A11831257
:100FB000031310101A3083120313BF00F730BE0062
:100FC000BE0BE02FBF0BE02FE52FBC2E0A128A11BB
:100FD000002883133E30FD000430FE00DE30FF00A9
:100FE000203084000A128A1184240A128A11F9011D
:100FF000FA01FB01FC01FD0183010A128A11AE2EE8
:04400E00F420FF3F5C
:00000001FF
