:020000040000FA
:060000000A128A110E280D
:10000800FE00030EF8000408F9000A08FA000A12B4
:100018008A11C4280A128A111128FB01FC018312D3
:100028000313A601A701A80183010A128A117B28DC
:1000380083120313A20040283F307A2806307A281A
:100048005B307A284F307A2866307A286D307A28E3
:100058007D307A2807307A287F307A2867307A28E6
:1000680077307A287C307A2839307A285E307A28B6
:1000780079307A2871307A282208A000A101210855
:10008800003A0319482820282008003A0319202894
:10009800013A03192228033A03192428013A0319BB
:1000A8002628073A03192828013A03192A28033A67
:1000B80003192C28013A03192E280F3A031930285E
:1000C800013A03193228033A03193428013A03196B
:1000D8003628073A03193828013A03193A28033A07
:1000E80003193C28013A03193E28202808000A125F
:1000F8008A1148210A128A118312031328088800DA
:10010800260803198828892880280130A400240893
:10011800A70702302702031C92289328AF28A701BB
:10012800AF2889017C080A128A111C200A128A1138
:1001380083120313870001308900BF2889017B08D7
:100148000A128A111C200A128A11831203138700CB
:1001580002308900BF282708A400A5012508003A15
:100168000319B728BF282408003A03199528013A2B
:100178000319A228BF28A60180280A128A110E286E
:100188000B1CC728C828D32883120313061CCD28A4
:10019800CE28D3280130F6007608A8070B100B1CD0
:1001A800D628D728E02883120313861CDC28DD28EC
:1001B800E0280130A8020B100B1DE328E428FE28D4
:1001C8007C30F6007608F0007B30F7007708F10005
:1001D800831203131E080A128A1179210A128A113E
:1001E800831203139F18F928FA28FB289F14A601E5
:1001F800A60A0B117A088A0079088400780E830011
:10020800FE0E7E0E090083120313A3001B293F3044
:100218009F0533291F083F3940389F0033291F089D
:100228003F3980389F003329C0309F043329831613
:1002380003130F0E073983120313A100A20122082A
:10024800003A0319282918292108043A03190B2907
:10025800023A03190E29013A031913291829230808
:10026800A100A10DA10D1F082106C33921069F0079
:100278009F101F14200C83160313031C9F130318CD
:100288009F179F121F12080001308316031788005A
:100298008901013083160313850003308600870126
:1002A800880189018312031385018601870188016A
:1002B800013089007030831603138F040F1416144D
:1002C80096140B108B150B118B168B17811281113D
:1002D80001158114011083120313A00100300A12C2
:1002E8008A1107210A128A110800F4007408F20022
:1002F8007208F50074080F39F2007108840072085A
:1003080080007508F20004300310F20CFF3E031D54
:1003180088297208F3007308F50075080F39F20090
:0A03280070088400720880000800CD
:04400E00F420FF3F5C
:00000001FF
