:020000040000FA
:060000000A128A110E280D
:10000800FE00030EF8000408F9000A08FA000A12B4
:100018008A11CD280A128A111128FB01FC018312CA
:100028000313A601A701A80183010A128A117B28DC
:1000380083120313A20040283F307A2806307A281A
:100048005B307A284F307A2866307A286D307A28E3
:100058007D307A2807307A287F307A2867307A28E6
:1000680077307A287C307A2839307A285E307A28B6
:1000780079307A2871307A282208A000A101210855
:10008800003A0319482820282008003A0319202894
:10009800013A03192228033A03192428013A0319BB
:1000A8002628073A03192828013A03192A28033A67
:1000B80003192C28013A03192E280F3A031930285E
:1000C800013A03193228033A03193428013A03196B
:1000D8003628073A03193828013A03193A28033A07
:1000E80003193C28013A03193E28202808000A125F
:1000F8008A1152210A128A118312031328088800D0
:100108001E082802031889288A288C2885148D2817
:100118008510260803199128922880280130A40008
:100128002408A70702302702031C9B289C28B8280C
:10013800A701B82889017C080A128A111C200A1212
:100148008A1183120313870001308900C8288901A6
:100158007B080A128A111C200A128A1183120313BF
:10016800870002308900C8282708A400A5012508AF
:10017800003A0319C028C8282408003A03199E2801
:10018800013A0319AB28C828A60180280A128A1147
:100198000E280B1CD028D128DC2883120313061C38
:1001A800D628D728DC280130F6007608A8070B10D7
:1001B8000B1CDF28E028E92883120313861CE52896
:1001C800E628E9280130A8020B100B100B1DED28BA
:1001D800EE2808297C30F6007608F0007B30F7001E
:1001E8007708F100831203131E080A128A1183216B
:1001F8000A128A11831203139F1803290429052957
:100208009F14A601A60A0B117A088A0079088400AF
:10021800780E8300FE0E7E0E090083120313A300DE
:1002280025293F309F053D291F083F3940389F0049
:100238003D291F083F3980389F003D29C0309F0461
:100248003D29831603130F0E073983120313A100E8
:10025800A2012208003A0319322922292108043A66
:1002680003191529023A03191829013A03191D29F6
:1002780022292308A100A10DA10D1F082106C339B9
:1002880021069F009F101F14200C83160313031CC4
:100298009F1303189F179F121F120800013083161F
:1002A8000317880089010130831603138500033082
:1002B800860087018801890183120313850186015D
:1002C80087018801013089007030831603138F0479
:1002D8000F14161496140B108B150B118B168B1705
:1002E8008112811101158114011083120313A001D9
:1002F80000300A128A1111210A128A110800F4002A
:100308007408F2007208F50074080F39F2007108D9
:100318008400720880007508F20004300310F20CA3
:10032800FF3E031D92297208F3007308F500750853
:0E0338000F39F200700884007208800008007F
:04400E00F420FF3F5C
:00000001FF
