:020000040000FA
:060000000A128A110C280F
:10000800FE00030EF1000A08F2000A128A111428F1
:100018000A128A110F28F30183010A128A1157283C
:100028000B1C17281828232883120313061C1D28C5
:100038001E2823280130F0007008F3070B100B1C52
:1000480026282728302883120313861C2C282D28BD
:1000580030280130F3020B1072088A00710E8300F9
:10006800FE0E7E0E090001308316031788008901F1
:100078000130831603138500033086008701880149
:10008800890183120313850186018701880189018B
:100098007030831603138F040F14161496140B1064
:1000A8008B158B1708000A128A1137200A128A1139
:1000B80073088312031388005C280A128A110C281B
:04400E00F420FF3F5C
:00000001FF
