:020000040000FA
:060000000A128A110C280F
:10000800FE00030EF0000A08F1000A128A159E2A63
:100018000A128A110F28FA01FB0183120313E00167
:10002800E101E201E301E401E501E601E701E8019C
:10003800E901EA01EB01EC01ED0183010A128A11E1
:100048000E2E8312031329088039AE002E08B30040
:100058002908AE002E07AF002F08B900A81F3528C1
:10006800362837283914390803193B283C284B28E7
:10007800390A031D4028412849280030A9000030CA
:10008800A8000030A7000030A600A81753280030A9
:10009800A9000030A8000030A7000030A6002D08F5
:1000A8008039AE002E08B3062D08AE002E07AF002B
:1000B8002F08B400AC1F6128622863283414340860
:1000C8000319672868287728340A031D6C286D28C7
:1000D80075280030AD000030AC000030AB000030B7
:1000E800AA00AC177F280030AD000030AC0000300B
:1000F800AB000030AA003408031983288428892813
:100108003908031D8828892892280030A900003062
:10011800A8000030A7000030A600852B2608AE00F6
:100128002E08F2002C080A128A15A8230A128A112E
:10013800730883120313BF007208BE003E08AE00A6
:10014800AF01B001B1013108B8003008B7002F087D
:10015800B6002E08B5003F08AE00AF01B001B101EE
:100168003108BD003008BC002F08BB002E08BA00BB
:100178002708AE002E08F2002B080A128A15A823B9
:100188000A128A11730883120313BF007208BE0093
:100198003E08AE00AF01B001B1012E08B5072F0827
:1001A80003110318013E0319DA28B60730080311B2
:1001B8000318013E0319E128B70731080311031892
:1001C800013E0319E828B8073F08AE00AF01B001A7
:1001D800B1012E08BA072F0803110318013E0319AD
:1001E800F628BB07300803110318013E0319FD2840
:1001F800BC07310803110318013E03190429BD0780
:100208002808AE002E08F2002A080A128A15A82328
:100218000A128A11730883120313BF007208BE0002
:100228003E08AE00AF01B001B1012E08B5072F0896
:1002380003110318013E03192229B60730080311D8
:100248000318013E03192929B707310803110318B8
:10025800013E03193029B8073F08AE00AF01B001CD
:10026800B1012E08BA072F0803110318013E03191C
:100278003E29BB07300803110318013E031945291D
:10028800BC07310803110318013E03194C29BD07A7
:100298000830AE000310B50DB60DB70DB80DAE0B96
:1002A8004E292708AE002E08F2002A080A128A15DD
:1002B800A8230A128A11730883120313BF00720855
:1002C800BE003E08AE003F08AF00B001B1012E08E5
:1002D800B5072F0803110318013E03197429B6073F
:1002E800300803110318013E03197B29B7073108A9
:1002F80003110318013E03198229B8072608AE0026
:100308002E08F2002B080A128A15A8230A128A114D
:10031800730883120313BF007208BE003E08AE00C4
:100328003F08AF00B001B1012E08B5072F0803112F
:100338000318013E0319A129B60730080311031851
:10034800013E0319A829B707310803110318013E14
:100358000319AF29B8070830AE000310B50DB60D64
:10036800B70DB80DAE0BB1292608AE002E08F20065
:100378002A080A128A15A8230A128A1173088312F6
:100388000313BF007208BE003E08AE003F08AF006E
:10039800B001B1012E08B5072F0803110318013E5B
:1003A8000319D729B607300803110318013E0319AA
:1003B800DE29B707310803110318013E0319E5299F
:1003C800B8072708AE002E08F2002C080A128A1572
:1003D800A8230A128A11730883120313BF00720834
:1003E800BE003E08AE003F08AF00B001B1012E08C4
:1003F800BA072F0803110318013E0319042ABB0783
:10040800300803110318013E03190B2ABC073108F1
:1004180003110318013E0319122ABD072808AE006C
:100428002E08F2002B080A128A15A8230A128A112C
:10043800730883120313BF007208BE003E08AE00A3
:100448003F08AF00B001B1012E08BA072F08031109
:100458000318013E0319312ABB073008031103189A
:10046800013E0319382ABC07310803110318013E5D
:1004780003193F2ABD072808AE002E08F2002C08F1
:100488000A128A15A8230A128A1173088312031301
:10049800BF007208BE003E08AE003F08AF00B001C2
:1004A800B10108300310AE0DAF0DB00DB10DFF3E18
:1004B800031D562A2E08BA072F0803110318013EF8
:1004C8000319672ABB07300803110318013E0319F3
:1004D8006E2ABC07310803110318013E0319752A57
:1004E800BD073508AE003608AF003708B000380839
:1004F800B10018300310B10CB00CAF0CAE0CFF3EBD
:10050800031D7E2A2E08BA072F0803110318013E7F
:1005180003198F2ABB07300803110318013E03197A
:10052800962ABC07310803110318013E03199D2AB6
:10053800BD070830AE000310B50DB60DB70DB80DE8
:10054800AE0B9F2A39083407AE00AF01AF0D2E0855
:10055800823EBE002F080318013EFF3EBF00D12A8D
:100568000130AE000310BA0DBB0DBC0DBD0DAE0BB6
:10057800B62AB81FC02AC12AC22A3A140130AE00CE
:100588000310B50DB60DB70DB80DAE0BC42AFF306C
:10059800BE070318BF0AFF30BF07BC1FD42AD52ADD
:1005A800B42AB401B81FD92ADA2AF62AFF30350549
:1005B800AE00FF303605AF00FF303705B0007F30A2
:1005C8003805B100310830042F042E040319ED2A30
:1005D800EE2AF12AB401B40AF62A3A1CF42AF52ABA
:1005E800F62AEE2A34080319FA2AFB2A2C2B0130A2
:1005F800BA07003003180130BB0700300318013078
:10060800BC07003003180130BD073D1C0C2B0D2B17
:100618002C2B3A08AE003B08AF003C08B0003D0860
:10062800B1000130B200310DB10CB00CAF0CAE0C02
:10063800B20B172B3108BD003008BC002F08BB00D7
:100648002E08BA000130BE070318BF0A0030BF07E2
:100658003F08803AFF0080307F02031D352BFF30B2
:100668003E02031C382B392B442B7F308312031393
:10067800BD008030BC000030BB000030BA00792BD0
:10068800831203133F08803AFF0080307F02031D66
:100698004F2B01303E020318522B532B5F2B003097
:1006A80083120313BD000030BC000030BB000030D3
:1006B800BA00B301792B831203133E08AE002E084B
:1006C800B900FF30BA05FF30BB057F30BC050030EC
:1006D800BD05391C702B712B722BBC173908AE0065
:1006E80003102E0CAF002F08BD003308AE002E08F3
:1006F800BD043D08A9003C08A8003B08A7003A082B
:10070800A60008007508803983120313A00020088A
:10071800A8007508A0002007A1002108AA00F41F5E
:10072800962B972B982B2A142A0803199C2B9D2B60
:10073800AD2B2A0A031DA12BA22BAA2B0030F500F2
:100748000030F4000030F3000030F200F417F50137
:10075800B52B0030F5000030F4000030F300003015
:10076800F20079088039A0002008A9002908280685
:100778000319BF2BC02BC12B28177908A00020070D
:10078800A1002108A900F81FCA2BCB2BCC2B2914B8
:1007980029080319D02BD12BE12B290A031DD52BAE
:1007A800D62BDE2B0030F9000030F8000030F700BF
:1007B8000030F600F817F901E92B0030F900003095
:1007C800F8000030F7000030F6002A082902031864
:1007D800EE2BEF2B332C281FF22BF32BF72B80302B
:1007E800A0002008A8062A08A0002008AB002908B5
:1007F800A0002008AA002B08A0002008A900720861
:10080800A0002008AB007608A0002008F2002B0802
:10081800A0002008F6007308A0002008AB007708A5
:10082800A0002008F3002B08A0002008F700740897
:10083800A0002008AB007808A0002008F4002B08CE
:10084800A0002008F8007508A0002008AB0079086F
:10085800A0002008F5002B08A0002008F900AB0133
:100868002908A000A1012108A3002A082002A2004B
:10087800031CA3032308803AFF0080307F02031D76
:10088800472C1A302202031C4A2C4B2C882C750842
:10089800740473047204031D522C542C0130552C1B
:1008A800003083120313A0002008AB000030F500CD
:1008B8000030F4000030F3000030F2002908A000F6
:1008C8002008AA00902C2B1C6A2C6B2C742C2B084B
:1008D800A0000310200C0138A1002108AB00762CE1
:1008E8000310AB0C721C792C7A2C7B2CAB170130C3
:1008F800A000750DF50CF40CF30CF20CA00B7D2C7C
:100908000130A0002008AA078312031329082A022D
:10091800031C8F2C902C672C281B932C942CDF2CD9
:100928002A08031D982C992CA22C0030F5000030C1
:10093800F4000030F3000030F2000D2E7608F207C4
:10094800770803110318013E0319AB2CF307780845
:1009580003110318013E0319B22CF4077908031197
:100968000318013E0319B92CF507751CBC2CBD2CC6
:10097800932D2B1CC02CC12CCA2C2B08A0000310B3
:10098800200C0138A1002108AB00CC2C0310AB0CC3
:10099800721CCF2CD02CD12CAB170130A000750DB8
:1009A800F50CF40CF30CF20CA00BD32C0130A000C6
:1009B8002008AA07932D7508803AFF007908803A25
:1009C8007F02031DF12C78087402031DF12C7708AF
:1009D8007302031DF12C760872020318F42CF52C0F
:1009E8004D2DFF30A000FF30A100FF30A200FF30E6
:1009F800A3007608A4007708A5007808A60079085F
:100A0800A7007208A4027308031C730F0C2D0D2D88
:100A1800A5027408031C740F122D132DA602750865
:100A2800031C750F182D192DA7022408A0072508E7
:100A38000318250F202D212DA10726080318260F9E
:100A4800262D272DA20727080318270AA3072308FE
:100A5800F5002208F4002108F3002008F200803095
:100A6800A0002008A806AB09AB0A2B08031D3D2DE2
:100A78003E2D5B2D0130F207003003180130F307DB
:100A8800003003180130F407003003180130F5076F
:100A98005B2D7608F2027708031C770FF3027808BB
:100AA800031C780FF4027908031C790FF502750806
:100AB800740473047204031D622D632D8F2D2B089B
:100AC800031D672D682D8F2D0030F5000030F400D0
:100AD8000030F3000030F2000D2E0130A0000310AA
:100AE800F20DF30DF40DF50DA00B732DAB1F7D2D3D
:100AF8007E2D7F2D72142B1C822D832D862D0314A1
:100B0800AB0D882D0310AB0D2A0803198C2D8D2DE4
:100B18008F2D0130AA02F41F922D932D712DA9015A
:100B2800AB1F972D982DA62D2B087F3903199D2DC6
:100B38009E2DA12DA901A90AA62D721CA42DA52DB3
:100B4800A62D9E2D29080319AA2DAB2DDF2D0130C6
:100B5800F207003003180130F307003003180130A2
:100B6800F407003003180130F507751CBC2DBD2DA6
:100B7800DF2D7208A0007308A1007408A200750890
:100B8800A3000130A400230DA30CA20CA10CA00CFF
:100B9800A40BC72D2308F5002208F4002108F30050
:100BA8002008F2002A0A0319DA2DDB2DDF2D013087
:100BB800A0002008AA072A0A0319E32DE42DE92D2D
:100BC8002A08031DE82DE92DF72D0030F500003027
:100BD800F4000030F3000030F2002A08031DF52D60
:100BE800F62DF72DA8012A1CFA2DFB2DFD2DF41743
:100BF800012E7F30A0002008F4052A08A000031069
:100C0800200CA1002108F500A81F0B2E0C2E0D2E7C
:100C1800F51708000A128A1583230A128A110A1284
:100C28008A11A1270A128A110A128A15AE220A12FB
:100C38008A1190300A128A15C0220A128A11AC3021
:100C48000A128A15C0220A128A1100300A128A155D
:100C5800C0220A128A110A128A15A5220A128A11BA
:100C680090300A128A15C0220A128A11EE300A122E
:100C78008A15C0220A128A110A128A15B7220A1284
:100C88008A110A128A15AE220A128A1121300A1212
:100C98008A15C0220A128A117B300A128A151B2370
:100CA8000A128A110A128A15B7220A128A110A121E
:100CB8008A15AE220A128A1131300A128A15C02208
:100CC8000A128A116D300A128A151B230A128A1118
:100CD8000A128A15B7220A128A110A128A15AE2236
:100CE8000A128A1190300A128A15C0220A128A1131
:100CF800AA300A128A15C0220A128A110A128A1503
:100D0800A5220A128A1191300A128A15C0220A12E3
:100D18008A117A300A128A151B230A128A110A12BA
:100D28008A15B7220A128A113C3083120313A900CC
:100D3800A030A800A530A7002730A6007B08DC005B
:100D4800DD01DE01DF015F08F5005E08F4005D08E3
:100D5800F3005C08F20001300A128A1544270A12CF
:100D68008A11750883120313AD007408AC00730868
:100D7800AB007208AA000A128A1125200A128A11E9
:100D8800831203132908E3002808E2002708E1007A
:100D98002608E0006308CE006208CD006108CC0098
:100DA8006008CB006A30DC005C08CF000A128A15A4
:100DB800A8260A128A11673083120313DC005C0824
:100DC800A9006D080A128A15D1230A128A11643003
:100DD80083120313DC005C08A9007A080A128A153A
:100DE8007E240A128A11F501F50A01300A128A15C1
:100DF8003C230A128A1101300A128A15FC220A12AF
:100E08008A11F501F50A02300A128A153C230A12E2
:100E18008A11831203136A08303E0A128A15D822EF
:100E28000A128A112E300A128A15D8220A128A1139
:100E3800831203136B08303E0A128A15D8220A124D
:100E48008A11831203136C08303E0A128A15D822BD
:100E58000A128A1156300A128A15D8220A128A11E1
:100E6800073083120313DC005C08F50002300A1215
:100E78008A153C230A128A11831203136908303E2B
:100E88000A128A15D8220A128A11831203136808D3
:100E9800303E0A128A15D8220A128A1183120313C5
:100EA8006708303E0A128A15D8220A128A110C30B5
:100EB80083120313DC005C08F50002300A128A155D
:100EC8003C230A128A1181307A0203186C2F6D2F85
:100ED800772F831203136608303E0A128A15D82228
:100EE8000A128A117F2F8312031366080A128A15C1
:100EF800D8220A128A11831203136508303E0A1297
:100F08008A15D8220A128A11831203136408303E04
:100F18000A128A15D8220A128A11DF300A128A1593
:100F2800D8220A128A1143300A128A15D8220A12C4
:100F38008A11452E0A128A110C28831203130910EC
:100F480088018230F600DD30F500F50BA92FF60B8D
:100F5800A92FAE2F30300A128A15E8220A128A11F8
:100F68000D30F600FB30F500F50BB82FF60BB82F57
:100F7800BD2F30300A128A15E8220A128A110D3064
:100F8800F600FB30F500F50BC72FF60BC72FCC2F5B
:100F980030300A128A15E8220A128A1138300A12E9
:100FA8008A15E8220A128A1106300A128A15E822DE
:100FB8000A128A110C300A128A15E8220A128A11BA
:100FC80001300A128A15E8220A128A110800F5006F
:100FD800F401751CF02FF12FF52F7208F300730838
:100FE800F4070310F20D0310F50C7508031DFD2F0F
:100FF800FE2FED2F7408080008308A000408840AC0
:1010080082070034533431343A34203420342034C5
:10101800533432343A342034203420345334333483
:041028003A34003422
:10153C0071088A00700E8300FE0E7E0E09000A12DE
:10154C008A15CB220A128A158316031391140800EC
:10155C000A128A15CB220A128A1583160313111448
:10156C0008000A128A15CB220A128A158316031355
:10157C0011150800F2000A128A15CB220A128A15DC
:10158C0072088312031393000800831603131419B3
:10159C00D02AD12ACB2A11081F39031DD62AD72AC3
:1015AC00CB2A0800F3008312031309147308880074
:1015BC0089141A30F200F20BE12A00008312031393
:1015CC0089100800F40083120313091074088800B2
:1015DC0089140B30F3006230F200F20BF32AF30B98
:1015EC00F32A00008312031389100800F5000E2B58
:1015FC00750884000A128A1500200A128A150A122C
:10160C008A15D8220A128A150130F4007408F507DD
:10161C00750884000A128A1500200A128A15003AED
:10162C00031D192B1A2BFE2A0800F3000A128A1527
:10163C00CB220A128A158316031391150A128A15E6
:10164C00CB220A128A15831203131308F2007308B3
:10165C0084007208831380000A128A15CB220A12A6
:10166C008A1583160313911611160800F7007703D9
:10167C00031D412B422B4D2B75087F3EF60076083F
:10168C00F80078080A128A15E8220A128A15023024
:10169C007706031D522B532B5E2B7508BF3EF600AD
:1016AC007608F80078080A128A15E8220A128A15B8
:1016BC000800803083120313AF063308F50032089C
:1016CC00F4003108F3003008F2002F08F9002E085E
:1016DC00F8002D08F7002C08F6000A128A11862350
:1016EC000A128A15750883120313AF007408AE0032
:1016FC007308AD007208AC0008008316031788014C
:10170C0089018316031385018601880189018312DF
:10171C000313850186018801890170308316031338
:10172C008F040F14003083120313A9000130A8009A
:10173C008630A700A030A6000A128A15FD230A12D3
:10174C008A15080083120313A400A001A1017208DA
:10175C00F400F5017408A2007508A300241CB72B33
:10176C00B82BBE2B2208A0070318A10A2308A10737
:10177C0001300310A20DA30DFF3E031DBF2B031060
:10178C00A40C2408031DCB2BCC2BB42B2108F30069
:10179C002008F200080083120313AD002E30AA00BB
:1017AC002A08A4003030AB002B08A5002F30AC0069
:1017BC002C08A6002D080A128A152B260A128A1547
:1017CC00831203132E08AA00290884002A08831305
:1017DC0080003008AA00290A84002A0880002F08FB
:1017EC00AA002908023E84002A088000080028303C
:1017FC008312031394008316031391018030940019
:10180C00831203132608AA002708AB002808AC0093
:10181C002908AD0002300310AA0DAB0DAC0DAD0DB7
:10182C00FF3E031D112C2D08F5002C08F4002B088D
:10183C00F3002A08F2000030F9007A30F800123078
:10184C00F7000030F6000A128A15DE240A128A15F7
:10185C007208FF3E831603139300871507160800C2
:10186C0083120313A6002608F7007708A7002408A4
:10187C00840083138001250884008001702C0A30B9
:10188C00F2000030F3002708F700F8017708F400A5
:10189C007808F5000A128A1546250A128A1572086C
:1018AC00F900831203132508840079088313800040
:1018BC00F630F7007708F2002508840000080A12B9
:1018CC008A11EB270A128A15831203132707F800D3
:1018DC007808A7000A3027020318752C762C452CA3
:1018EC002708F70024088400770883138000080079
:1018FC0083120313AE0081302E020318862C872C22
:10190C00B02C3030AA002A08A4003130AB002B08D0
:10191C00A5002F30AC002C08A6002E080A128A1540
:10192C002B260A128A15831203133008AA002908E1
:10193C0084002A08831380003108AA00290A840035
:10194C002A0880002F08AA002908023E84002A08D1
:10195C008000DD2C2E08003CAA002A08AD00303097
:10196C00AA002A08A4003130AB002B08A5002F30A8
:10197C00AC002C08A6002D080A128A152B260A1278
:10198C008A15831203133008AA00290884002A0838
:10199C00831380003108AA00290A84002A088000D9
:1019AC002D30AA002908023E84002A088000080075
:1019BC00003083120313A4000030A3000030A200F7
:1019CC000030A10075087404730472040319EF2C21
:1019DC00F02C3D2DA501A50A002D0130A00003100F
:1019EC00F20DF30DF40DF50DA00BF52C0130A0004C
:1019FC002008A507F51F032D042DF32C0130A000A2
:101A0C000310A10DA20DA30DA40DA00B062D75089E
:101A1C007902031D1B2D74087802031D1B2D7308FE
:101A2C007702031D1B2D72087602031C1E2D1F2D21
:101A3C002E2D7208F6027308031C730FF70274083C
:101A4C00031C740FF8027508031C750FF90221149E
:101A5C0001300310F50CF40CF30CF20CFF3E031DDB
:101A6C002F2D0130A502031D3C2D3D2D042D2408E6
:101A7C00F5002308F4002208F3002108F200080006
:101A8C0083120313A101F31F4C2D4D2D542DF2097C
:101A9C00F309F20A0319F30AA101A10AF51F572D44
:101AAC00582D612DF409F509F40A0319F50A0130D2
:101ABC00F6007608A106A201A301720873040319AB
:101ACC00682D692DA02DA001A00A772D01300310DF
:101ADC00F20DF30DFF3E031D6D2D0130F60076085F
:101AEC00A007F31F7A2D7B2D6C2D01300310A20D56
:101AFC00A30DFF3E031D7C2D73087502031D882D5D
:101B0C0072087402031C8B2D8C2D932D7208F40219
:101B1C007308031CF503F502221401300310F30CB7
:101B2C00F20CFF3E031D942D0130A002031D9F2DCE
:101B3C00A02D7B2D21080319A42DA52DAA2DA209BA
:101B4C00A309A20A0319A30A2308F3002208F2002E
:101B5C000800031083120313420D430DC400440804
:101B6C00CA004A08031DBB2DBC2DC52D0030C30077
:101B7C000030C2000030C1000030C0002A2E4008E6
:101B8C00C4004108C5004208C6004308C7001F3006
:101B9C000310C70CC60CC50CC40CFF3E031DCE2D88
:101BAC004408C8004808C900C217FF30C005FF3000
:101BBC00C105FF30C2050030C3059630CA02CA1FEA
:101BCC00E82DE92D032E4A08803A973E0318EF2D95
:101BDC00F02DF12DBC2D01300310C30CC20CC10C27
:101BEC00C00CFF3E031DF22D0130C4004408CA078F
:101BFC00031D012E022EF12D1A2E20304A02031C39
:101C0C00082E092E152EBC2D0130C4000310C00D5A
:101C1C00C10DC20DC30DC40B0C2E0130CA024A08F3
:101C2C00031D192E1A2E0A2E490803191E2E1F2EBB
:101C3C002A2EC009C109C209C309C00A0319C10A65
:101C4C000319C20A0319C30A080083120313A7005D
:101C5C002708F7007708A800240884008313800164
:101C6C00250884008001260884008001682E6430D9
:101C7C00F2000030F3002808F700F8017708F400B0
:101C8C007808F5000A128A1546250A128A15720878
:101C9C00F90083120313260884007908831380004B
:101CAC009C30F7007708F2002608840000080A121E
:101CBC008A11EB270A128A15831203132807F800DE
:101CCC007808A8006430280203186D2E6E2E3D2E65
:101CDC009A2E0A30F2000030F3002808F700F801C1
:101CEC007708F4007808F5000A128A1546250A12BE
:101CFC008A157208F90083120313250884007908E9
:101D0C0083138000F630F7007708F2002508840072
:101D1C0000080A128A11EB270A128A158312031380
:101D2C002807F8007808A8000A30280203189F2E0C
:101D3C00A02E6F2E2808F700240884007708831340
:101D4C0080000800831203134E08C3004D08C20024
:101D5C004C08C1004B08C0000A128A15AF250A12A4
:101D6C008A15831203134008D0005008D900590873
:101D7C00D0005008DC005908D000D101D201D301A9
:101D8C005308F5005208F4005108F3005008F20013
:101D9C0000300A128A1544270A128A157508831214
:101DAC000313AF007408AE007308AD007208AC00EA
:101DBC004E08B3004D08B2004C08B1004B08B000FF
:101DCC000A128A155F230A128A15831203132F082D
:101DDC00D7002E08D6002D08D5002C08D4005708A3
:101DEC00AD005608AC005508AB005408AA004230B0
:101DFC00A900C830A8000030A7000030A6000A12C5
:101E0C008A1125200A128A15831203132908C3008C
:101E1C002808C2002708C1002608C0000A128A152B
:101E2C00AF250A128A15831203134008D0005008FC
:101E3C00D8005A30D0005008A4005B30D1005108B3
:101E4C00A50058080A128A1536240A128A1583121C
:101E5C0003135908D0004F088400500883138000E6
:101E6C005B08D0004F0A8400500880005A08D0004C
:101E7C004F08023E840050088000080083120313B0
:101E8C00A000200803194B2F4C2F602FF51F4F2F4C
:101E9C00502F602F7209A2007309A3007409A400CB
:101EAC007509A500A20A0319A30A0319A40A0319A8
:101EBC00A50A682F7508A5007408A4007308A30070
:101ECC007208A2007508740473047204031D6F2F4A
:101EDC00702F792F0030F5000030F4000030F30043
:101EEC000030F200FF2F9630F6007608A1008B2F01
:101EFC000130F6007608A10701300310A50CA40CE4
:101F0C00A30CA20CFF3E031D832FFE302505031DE1
:101F1C00902F912F7E2FAD2F0130F6007608A10760
:101F2C000130A207003003180130A307003003185A
:101F3C000130A407003003180130A507013003104D
:101F4C00A50CA40CA30CA20CFF3E031DA52FFF3067
:101F5C002505031DB22FB32F922FBF2F0130A102E5
:101F6C000130F6000310A20DA30DA40DA50DF60B68
:101F7C00B82FA41BC22FC32FC92F02302102031864
:101F8C00C82FC92FB42F2118CC2FCD2FD52FFF3010
:101F9C00A205FF30A3057F30A405FF30A505031073
:101FAC00A10C2108F600F701F801F9011830031013
:101FBC00F60DF70DF80DF90DFF3E031DDD2F76081C
:101FCC00A2047708A3047808A4047908A5042008BF
:101FDC000319F12FF22FF72FF51FF52FF62FF72FEF
:101FEC00A5172508F5002408F4002308F30022089F
:041FFC00F2000800E7
:04400E00F420FF3F5C
:00000001FF
