:020000040000FA
:060000000A128A110C280F
:10000800FE00030EF0000A08F1000A128A115029B6
:100018000A128A110F2883120313B00183010A12EE
:100028008A11B728003083120313A3000030A200FE
:100038000030A1000030A000750874047304720435
:100048000319272828287528A401A40A382801306C
:10005800FA000310F20DF30DF40DF50DFA0B2D282F
:100068000130FA007A08A407F51F3B283C282B2802
:100078000130FA000310A00DA10DA20DA30DFA0B7B
:100088003E2875087902031D532874087802031D59
:10009800532873087702031D532872087602031C3D
:1000A8005628572866287208F6027308031C730F2F
:1000B800F7027408031C740FF8027508031C750F07
:1000C800F902201401300310F50CF40CF30CF20CB7
:1000D800FF3E031D67280130A402031D74287528FC
:1000E8003C282308F5002208F4002108F300200822
:1000F800F2000800283083120313940083160313B8
:10010800910180309400831203132508A900260862
:10011800AA002708AB002808AC0002300310A90D7C
:10012800AA0DAB0DAC0DFF3E031D92282C08F5005F
:100138002B08F4002A08F3002908F2000030F9001F
:100148007A30F8001230F7000030F6000A128A11EF
:1001580016200A128A117208FF3E831603139300B1
:100168008715071608000A128A110A210A128A112D
:100178000A128A1147210A128A1121300A128A1199
:1001880033210A128A1130300A128A11E9200A1220
:100198008A110A128A113E210A128A110230831228
:1001A8000313AF000430AE00B930AD00AD0BDA2850
:1001B800AE0BDA28AF0BDA28E128831203133008D4
:1001C8008800BC280A128A110C28F3000A128A1126
:1001D80026210A128A118316031391150A128A110D
:1001E80026210A128A11831203131308F2007308D6
:1001F80084007208831380000A128A1126210A12C9
:100208008A11831603139116111608008316031713
:1002180088018901831603138501860188018312E9
:1002280003138501860188010030A8000130A7006A
:100238008630A600A030A5000A128A117E200A1274
:100248008A1108008316031314192B292C2926292F
:1002580011081F39031D3129322926290800F20007
:100268000A128A1126210A128A11720883120313AC
:10027800930008000A128A1126210A128A1183168D
:100288000313111508000A128A1126210A128A116D
:10029800831603131114080071088A00700E830076
:0602A800FE0E7E0E0900AF
:04400E00F420FF3F5C
:00000001FF
