:020000040000FA
:060000000A128A110C280F
:10000800FE00030EF0000A08F1000A128A15902C6F
:100018000A128A110F2883120313E001E101E20199
:10002800E301E401E501E601E70183010A128A110F
:10003800062E8312031329088039AE002E08B30058
:100048002908AE002E07AF002F08B900A81F2D28D9
:100058002E282F283914390803193328342843281F
:10006800390A031D3828392841280030A9000030F2
:10007800A8000030A7000030A600A8174B280030C1
:10008800A9000030A8000030A7000030A6002D0805
:100098008039AE002E08B3062D08AE002E07AF003B
:1000A8002F08B800AC1F59285A285B28381438087C
:1000B80003195F2860286F28380A031D64286528FB
:1000C8006D280030AD000030AC000030AB000030CF
:1000D800AA00AC1777280030AD000030AC00003023
:1000E800AB000030AA00380803197B287C28812837
:1000F8003908031D802881288A280030A90000308B
:10010800A8000030A7000030A6007D2B2608AE000E
:100118002E08F2002C080A128A158F250A128A1155
:10012800730883120313BF007208BE003E08AE00B6
:10013800AF01B001B1013108B7003008B6002F088F
:10014800B5002E08B4003F08AE00AF01B001B10100
:100158003108BD003008BC002F08BB002E08BA00CB
:100168002708AE002E08F2002B080A128A158F25E0
:100178000A128A11730883120313BF007208BE00A3
:100188003E08AE00AF01B001B1012E08B4072F0838
:1001980003110318013E0319D228B50730080311CB
:1001A8000318013E0319D928B607310803110318AB
:1001B800013E0319E028B7073F08AE00AF01B001C0
:1001C800B1012E08BA072F0803110318013E0319BD
:1001D800EE28BB07300803110318013E0319F52860
:1001E800BC07310803110318013E0319FC28BD0799
:1001F8002808AE002E08F2002A080A128A158F2550
:100208000A128A11730883120313BF007208BE0012
:100218003E08AE00AF01B001B1012E08B4072F08A7
:1002280003110318013E03191A29B50730080311F1
:100238000318013E03192129B607310803110318D1
:10024800013E03192829B7073F08AE00AF01B001E6
:10025800B1012E08BA072F0803110318013E03192C
:100268003629BB07300803110318013E03193D293D
:10027800BC07310803110318013E03194429BD07BF
:100288000830AE000310B40DB50DB60DB70DAE0BAA
:1002980046292708AE002E08F2002A080A128A15F5
:1002A8008F250A128A11730883120313BF0072087C
:1002B800BE003E08AE003F08AF00B001B1012E08F5
:1002C800B4072F0803110318013E03196C29B50759
:1002D800300803110318013E03197329B6073108C2
:1002E80003110318013E03197A29B7072608AE003F
:1002F8002E08F2002B080A128A158F250A128A1175
:10030800730883120313BF007208BE003E08AE00D4
:100318003F08AF00B001B1012E08B4072F08031140
:100328000318013E03199929B5073008031103186A
:10033800013E0319A029B607310803110318013E2D
:100348000319A729B7070830AE000310B40DB50D7F
:10035800B60DB70DAE0BA9292608AE002E08F2007F
:100368002A080A128A158F250A128A11730883121D
:100378000313BF007208BE003E08AE003F08AF007E
:10038800B001B1012E08B4072F0803110318013E6C
:100398000319CF29B507300803110318013E0319C3
:1003A800D629B607310803110318013E0319DD29C0
:1003B800B7072708AE002E08F2002C080A128A1583
:1003C8008F250A128A11730883120313BF0072085B
:1003D800BE003E08AE003F08AF00B001B1012E08D4
:1003E800BA072F0803110318013E0319FC29BB079C
:1003F800300803110318013E0319032ABC0731080A
:1004080003110318013E03190A2ABD072808AE0084
:100418002E08F2002B080A128A158F250A128A1153
:10042800730883120313BF007208BE003E08AE00B3
:100438003F08AF00B001B1012E08BA072F08031119
:100448000318013E0319292ABB07300803110318B2
:10045800013E0319302ABC07310803110318013E75
:100468000319372ABD072808AE002E08F2002C0809
:100478000A128A158F250A128A1173088312031328
:10048800BF007208BE003E08AE003F08AF00B001D2
:10049800B10108300310AE0DAF0DB00DB10DFF3E28
:1004A800031D4E2A2E08BA072F0803110318013E10
:1004B80003195F2ABB07300803110318013E03190B
:1004C800662ABC07310803110318013E03196D2A77
:1004D800BD073408AE003508AF003608B00037084D
:1004E800B10018300310B10CB00CAF0CAE0CFF3ECD
:1004F800031D762A2E08BA072F0803110318013E98
:100508000319872ABB07300803110318013E031992
:100518008E2ABC07310803110318013E0319952AD6
:10052800BD070830AE000310B40DB50DB60DB70DFC
:10053800AE0B972A39083807AE00AF01AF0D2E0869
:10054800823EBE002F080318013EFF3EBF00C92AA5
:100558000130AE000310BA0DBB0DBC0DBD0DAE0BC6
:10056800AE2AB71FB82AB92ABA2A3A140130AE00FF
:100578000310B40DB50DB60DB70DAE0BBC2AFF3088
:10058800BE070318BF0AFF30BF07BC1FCC2ACD2AFD
:10059800AC2AB801B71FD12AD22AEE2AFF30340577
:1005A800AE00FF303505AF00FF303605B0007F30B4
:1005B8003705B100310830042F042E040319E52A49
:1005C800E62AE92AB801B80AEE2A3A1CEC2AED2AEA
:1005D800EE2AE62A38080319F22AF32A242B0130D6
:1005E800BA07003003180130BB0700300318013088
:1005F800BC07003003180130BD073D1C042B052B38
:10060800242B3A08AE003B08AF003C08B0003D0878
:10061800B1000130B200310DB10CB00CAF0CAE0C12
:10062800B20B0F2B3108BD003008BC002F08BB00EF
:100638002E08BA000130BE070318BF0A0030BF07F2
:100648003F08803AFF0080307F02031D2D2BFF30CA
:100658003E02031C302B312B3C2B7F3083120313BB
:10066800BD008030BC000030BB000030BA00712BE8
:10067800831203133F08803AFF0080307F02031D76
:10068800472B01303E0203184A2B4B2B572B0030C7
:1006980083120313BD000030BC000030BB000030E3
:1006A800BA00B301712B831203133E08AE002E0863
:1006B800B900FF30BA05FF30BB057F30BC050030FC
:1006C800BD05391C682B692B6A2BBC173908AE008D
:1006D80003102E0CAF002F08BD003308AE002E0803
:1006E800BD043D08A9003C08A8003B08A7003A083B
:1006F800A60008007508803983120313A00020089B
:10070800A8007508A0002007A1002108AA00F41F6E
:100718008E2B8F2B902B2A142A080319942B952B98
:10072800A52B2A0A031D992B9A2BA22B0030F50022
:100738000030F4000030F3000030F200F417F50147
:10074800AD2B0030F5000030F4000030F30000302D
:10075800F20079088039A0002008A9002908280695
:100768000319B72BB82BB92B28177908A000200735
:10077800A1002108A900F81FC22BC32BC42B2914E0
:1007880029080319C82BC92BD92B290A031DCD2BDE
:10079800CE2BD62B0030F9000030F8000030F700DF
:1007A8000030F600F817F901E12B0030F9000030AD
:1007B800F8000030F7000030F6002A082902031874
:1007C800E62BE72B2B2C281FEA2BEB2BEF2B80306B
:1007D800A0002008A8062A08A0002008AB002908C5
:1007E800A0002008AA002B08A0002008A900720871
:1007F800A0002008AB007608A0002008F2002B0813
:10080800A0002008F6007308A0002008AB007708B5
:10081800A0002008F3002B08A0002008F7007408A7
:10082800A0002008AB007808A0002008F4002B08DE
:10083800A0002008F8007508A0002008AB0079087F
:10084800A0002008F5002B08A0002008F900AB0143
:100858002908A000A1012108A3002A082002A2005B
:10086800031CA3032308803AFF0080307F02031D86
:100878003F2C1A302202031C422C432C802C750872
:10088800740473047204031D4A2C4C2C01304D2C43
:10089800003083120313A0002008AB000030F500DD
:1008A8000030F4000030F3000030F2002908A00006
:1008B8002008AA00882C2B1C622C632C6C2C2B087B
:1008C800A0000310200C0138A1002108AB006E2CF9
:1008D8000310AB0C721C712C722C732CAB170130EB
:1008E800A000750DF50CF40CF30CF20CA00B752C94
:1008F8000130A0002008AA078312031329082A023E
:10090800031C872C882C5F2C281B8B2C8C2CD72C19
:100918002A08031D902C912C9A2C0030F5000030E9
:10092800F4000030F3000030F200052E7608F207DC
:10093800770803110318013E0319A32CF30778085D
:1009480003110318013E0319AA2CF40779080311AF
:100958000318013E0319B12CF507751CB42CB52CEE
:100968008B2D2B1CB82CB92CC22C2B08A0000310E3
:10097800200C0138A1002108AB00C42C0310AB0CDB
:10098800721CC72CC82CC92CAB170130A000750DE0
:10099800F50CF40CF30CF20CA00BCB2C0130A000DE
:1009A8002008AA078B2D7508803AFF007908803A3D
:1009B8007F02031DE92C78087402031DE92C7708CF
:1009C8007302031DE92C760872020318EC2CED2C37
:1009D800452DFF30A000FF30A100FF30A200FF30FE
:1009E800A3007608A4007708A5007808A60079086F
:1009F800A7007208A4027308031C730F042D052DA9
:100A0800A5027408031C740F0A2D0B2DA602750885
:100A1800031C750F102D112DA7022408A007250807
:100A28000318250F182D192DA10726080318260FBE
:100A38001E2D1F2DA20727080318270AA30723081E
:100A4800F5002208F4002108F3002008F2008030A5
:100A5800A0002008A806AB09AB0A2B08031D352DFA
:100A6800362D532D0130F207003003180130F307FB
:100A7800003003180130F407003003180130F5077F
:100A8800532D7608F2027708031C770FF3027808D3
:100A9800031C780FF4027908031C790FF502750816
:100AA800740473047204031D5A2D5B2D872D2B08C3
:100AB800031D5F2D602D872D0030F5000030F400F8
:100AC8000030F3000030F200052E0130A0000310C2
:100AD800F20DF30DF40DF50DA00B6B2DAB1F752D5D
:100AE800762D772D72142B1C7A2D7B2D7E2D0314D9
:100AF800AB0D802D0310AB0D2A080319842D852D0D
:100B0800872D0130AA02F41F8A2D8B2D692DA9018A
:100B1800AB1F8F2D902D9E2D2B087F390319952DF6
:100B2800962D992DA901A90A9E2D721C9C2D9D2DEB
:100B38009E2D962D29080319A22DA32DD72D0130FE
:100B4800F207003003180130F307003003180130B2
:100B5800F407003003180130F507751CB42DB52DC6
:100B6800D72D7208A0007308A1007408A2007508A8
:100B7800A3000130A400230DA30CA20CA10CA00C0F
:100B8800A40BBF2D2308F5002208F4002108F30068
:100B98002008F2002A0A0319D22DD32DD72D0130AF
:100BA800A0002008AA072A0A0319DB2DDC2DE12D55
:100BB8002A08031DE02DE12DEF2D0030F50000304F
:100BC800F4000030F3000030F2002A08031DED2D78
:100BD800EE2DEF2DA8012A1CF22DF32DF52DF4177B
:100BE800F92D7F30A0002008F4052A08A000031082
:100BF800200CA1002108F500A81F032E042E052EA5
:100C0800F51708000A128A15EA240A128A110A122C
:100C18008A1537260A128A110A128A1597240A1287
:100C28008A1121300A128A15A9240A128A116730FA
:100C38000A128A1527250A128A110A128A15A0246F
:100C48000A128A11023083120313DE000430DD0019
:100C5800B930DC00DC0B2E2EDD0B2E2EDE0B2E2EFB
:100C6800352E3C3083120313A900A030A800A5300C
:100C7800A7002730A6006708DC00DD01DE01DF01E0
:100C88005F08F5005E08F4005D08F3005C08F200F8
:100C980001300A128A11C9260A128A1175088312AC
:100CA8000313AD007408AC007308AB007208AA0007
:100CB8000A128A111D200A128A11831203132908A5
:100CC800E3002808E2002708E1002608E0000330D6
:100CD80083120313DD009730DC00DC0B712EDD0B73
:100CE800712E831203136308CE006208CD006108D9
:100CF800CC006008CB006430DC005C08CF000A122E
:100D08008A1564270A128A11F501F50A01300A12B8
:100D18008A1548250A128A1101300A128A150825EF
:100D28000A128A11F501F50A02300A128A154825B5
:100D38000A128A11831203136408303E0A128A11B8
:100D4800ED270A128A112E300A128A11ED270A128B
:100D58008A11831203136508303E0A128A11ED279F
:100D68000A128A11831203136608303E0A128A1186
:100D7800ED270A128A1156300A128A11ED270A1233
:100D88008A11102E0A128A110C2883120313A0004C
:100D980020080319D02ED12EE52EF51FD42ED52EDE
:100DA800E52E7209A2007309A3007409A40075094D
:100DB800A500A20A0319A30A0319A40A0319A50A7C
:100DC800ED2E7508A5007408A4007308A300720826
:100DD800A2007508740473047204031DF42EF52E22
:100DE800FE2E0030F5000030F4000030F300003033
:100DF800F200842F9630F6007608A100102F0130FB
:100E0800F6007608A10701300310A50CA40CA30C6A
:100E1800A20CFF3E031D082FFE302505031D152FCC
:100E2800162F032F322F0130F6007608A107013064
:100E3800A207003003180130A3070030031801305F
:100E4800A407003003180130A50701300310A50CD2
:100E5800A40CA30CA20CFF3E031D2A2FFF3025056E
:100E6800031D372F382F172F442F0130A1020130CF
:100E7800F6000310A20DA30DA40DA50DF60B3D2F32
:100E8800A41B472F482F4E2F0230210203184D2F45
:100E98004E2F392F2118512F522F5A2FFF30A205CC
:100EA800FF30A3057F30A405FF30A5050310A10C72
:100EB8002108F600F701F801F90118300310F60DC2
:100EC800F70DF80DF90DFF3E031D622F7608A204F9
:100ED8007708A3047808A4047908A504200803194E
:100EE800762F772F7C2FF51F7A2F7B2F7C2FA51736
:100EF8002508F5002408F4002308F3002208F2006E
:100F08000800003083120313A3000030A200003051
:100F1800A1000030A000750874047304720403195A
:100F2800962F972FE42FA401A40AA72F0130FA00C7
:100F38000310F20DF30DF40DF50DFA0B9C2F013093
:100F4800FA007A08A407F51FAA2FAB2F9A2F0130B1
:100F5800FA000310A00DA10DA20DA30DFA0BAD2FE1
:100F680075087902031DC22F74087802031DC22F69
:100F780073087702031DC22F72087602031CC52F5F
:100F8800C62FD52F7208F6027308031C730FF702D9
:100F98007408031C740FF8027508031C750FF90216
:100FA800201401300310F50CF40CF30CF20CFF3E86
:100FB800031DD62F0130A402031DE32FE42FAB2F0E
:100FC8002308F5002208F4002108F3002008F200A5
:100FD8000800F300831203130914730888008914A6
:100FE8001A30F200F20BF62F000083120313891057
:020FF8000800EF
:1010000008308A000408840A8207003453343134DB
:101010003A34203420342034533432343A342034B7
:0C10200020342034533433343A3400348C
:1019200071088A00700E8300FE0E7E0E09000A12F6
:101930008A15B4240A128A15831603131114080099
:101940000A128A15B4240A128A1583160313111574
:101950000800F2000A128A15B4240A128A157208C5
:101960008312031393000800831603131419B92C70
:10197000BA2CB42C11081F39031DBF2CC02CB42C59
:101980000800F400831203130910740888008914F6
:101990000B30F3006230F200F20BCC2CF30BCC2CAA
:1019A00000008312031389100800F500F401751C70
:1019B000DA2CDB2CDF2C7208F3007308F407031019
:1019C000F20D0310F50C7508031DE72CE82CD72C3D
:1019D000740808008316031788018901831603130E
:1019E000850186018801890183120313850186011F
:1019F000880189010030A8000130A7008630A600C8
:101A0000A030A5000A128A15B6250A128A15080008
:101A1000F5001A2D750884000A128A1500200A1292
:101A20008A150A128A11ED270A128A150130F4006C
:101A30007408F507750884000A128A1500200A1236
:101A40008A15003A031D252D262D0A2D0800F300C6
:101A50000A128A15B4240A128A15831603139115E3
:101A60000A128A15B4240A128A1583120313130862
:101A7000F200730884007208831380000A128A152A
:101A8000B4240A128A15831603139116111608003E
:101A9000F7007703031D4D2D4E2D592D75087F3E00
:101AA000F6007608F80078080A128A15C1240A128E
:101AB0008A1502307706031D5E2D5F2D6A2D75088D
:101AC000BF3EF6007608F80078080A128A15C1248D
:101AD0000A128A150800803083120313AF063308F8
:101AE000F5003208F4003108F3003008F2002F0846
:101AF000F9002E08F8002D08F7002C08F6000A124D
:101B00008A117E230A128A15750883120313AF0007
:101B10007408AE007308AD007208AC000800FA004B
:101B2000F601F7017208F400F5017408F800750871
:101B3000F9007A1C9C2D9D2DA32D7808F60703181B
:101B4000F70A7908F70701300310F80DF90DFF3E89
:101B5000031DA42D0310FA0C7A08031DB02DB12D1E
:101B6000992D7708F3007608F200080028308312D8
:101B700003139400831603139101803094008312A1
:101B800003132508A9002608AA002708AB00280887
:101B9000AC0002300310A90DAA0DAB0DAC0DFF3E39
:101BA000031DCA2D2C08F5002B08F4002A08F300A9
:101BB0002908F2000030F9007A30F8001230F700FE
:101BC0000030F6000A128A1185270A128A15720857
:101BD000FF3E831603139300871507160800831230
:101BE0000313A5002508A2002208A60020088400EF
:101BF00083138001210884008001292E0A30F2001D
:101C00000030F3002608A200A3012208F4002308F4
:101C1000F5000A128A1581260A128A1572088312A3
:101C20000313A40021088400240883138000F630E5
:101C3000A2002208F2002108840000080A128A1576
:101C4000D5240A128A15831203132607A30023083A
:101C5000A6000A30260203182E2E2F2EFE2D26084F
:101C6000A200200884002208831380000800831249
:101C70000313091088018230F600DD30F500F50B02
:101C80003F2EF60B3F2E442E30300A128A15C12407
:101C90000A128A150D30F600FB30F500F50B4E2EBA
:101CA000F60B4E2E532E30300A128A15C1240A121A
:101CB0008A150D30F600FB30F500F50B5D2EF60BA6
:101CC0005D2E622E30300A128A15C1240A128A153E
:101CD00038300A128A15C1240A128A1506300A12EF
:101CE0008A15C1240A128A150C300A128A15C124D9
:101CF0000A128A1501300A128A15C1240A128A159D
:101D00000800F801F31F852E862E8D2EF209F309A7
:101D1000F20A0319F30AF801F80AF51F902E912E22
:101D20009A2EF409F509F40A0319F50A0130F600B0
:101D30007608F806F901FA01720873040319A12E56
:101D4000A22ED92EF701F70AB02E01300310F20DA2
:101D5000F30DFF3E031DA62E0130F6007608F707AF
:101D6000F31FB32EB42EA52E01300310F90DFA0D7A
:101D7000FF3E031DB52E73087502031DC12E7208A8
:101D80007402031CC42EC52ECC2E7208F4027308F4
:101D9000031CF503F502791401300310F30CF20C67
:101DA000FF3E031DCD2E0130F702031DD82ED92E84
:101DB000B42E78080319DD2EDE2EE32EF909FA0978
:101DC000F90A0319FA0A7A08F3007908F200080000
:101DD000031083120313420D430DC4004408CA00CC
:101DE0004A08031DF42EF52EFE2E0030C3000030ED
:101DF000C2000030C1000030C000632F4008C400A2
:101E00004108C5004208C6004308C7001F30031040
:101E1000C70CC60CC50CC40CFF3E031D072F44089D
:101E2000C8004808C900C217FF30C005FF30C1050F
:101E3000FF30C2050030C3059630CA02CA1F212FE9
:101E4000222F3C2F4A08803A973E0318282F292F2B
:101E50002A2FF52E01300310C30CC20CC10CC00C8C
:101E6000FF3E031D2B2F0130C4004408CA07031D89
:101E70003A2F3B2F2A2F532F20304A02031C412F89
:101E8000422F4E2FF52E0130C4000310C00DC10D9E
:101E9000C20DC30DC40B452F0130CA024A08031DF1
:101EA000522F532F432F49080319572F582F632FB1
:101EB000C009C109C209C309C00A0319C10A03192B
:101EC000C20A0319C30A0800831203134E08C30091
:101ED0004D08C2004C08C1004B08C0000A128A1508
:101EE000E8260A128A15831203134008D00050080E
:101EF000D9005908D0005008DC005908D000D101A1
:101F0000D201D3015308F5005208F4005108F30040
:101F10005008F20000300A128A11C9260A128A15E6
:101F2000750883120313AF007408AE007308AD0088
:101F30007208AC004E08B3004D08B2004C08B10066
:101F40004B08B0000A128A156B250A128A158312F3
:101F500003132F08D7002E08D6002D08D5002C0813
:101F6000D4005708AD005608AC005508AB00540823
:101F7000AA004230A900C830A8000030A7000030F5
:101F8000A6000A128A111D200A128A158312031351
:101F90002908C3002808C2002708C1002608C0007D
:101FA0000A128A15E8260A128A15831203134008BA
:101FB000D0005008D8005A30D0005008A0005B3044
:101FC000D1005108A10058080A128A15EF250A12FB
:101FD0008A15831203135908D0004F088400500853
:101FE000831380005B08D0004F0A840050088000F3
:101FF0005A08D0004F08023E8400500880000800B4
:04400E00F420FF3F5C
:00000001FF
