:020000040000FA
:060000000A128A110C280F
:10000800FE00030EF2000A08F3000A128A111528EE
:100018000A128A110F28F501F60183010A128A11C2
:10002800E22883120313061C1A281B282E280B1CEF
:100038001E281F282E280130F0007008F5070F3001
:100048007502031C282829282D280F30F000700875
:10005800F5000B10861C3128322840280B1C352847
:10006800362840287508031D3A283B283D28F50105
:100078003F280130F5020B100B108C1D4428452831
:10008800A2281412141B49284A284E28941F4D28C8
:100098004E2855281308F0007008F600141394131E
:1000A80014168316031314195A285B287A28941AED
:1000B8005E285F287A28831203131308F00070085B
:1000C800F600141683160313141C6B286C28662874
:1000D80083120313130886000330F1009730F000F1
:1000E800F00B7428F10B742879289F28141D7D289B
:1000F8007E289F28941A812882289F288312031318
:100108001308F0007008F60083160313141075081E
:1001180083120313930014160330F1009730F00094
:10012800F00B9428F10B94289928831603131418BC
:100138009E289F289928831203138C1173088A001C
:10014800720E8300FE0E7E0E0900831603178801C7
:100158008901831603138501033086008801831201
:100168000313850186018801F50170308316031396
:100178008F040F148B170B170B108B158312031397
:100188008C11831603138C151614961430300A122A
:100198008A11D1200A128A110800F4007408831603
:1001A800031393002630831203139400831603135A
:1001B8009101803094008715071608000A128A11E9
:1001C800A9200A128A117508831203138800E728E8
:0601D8000A128A110C2836
:04400E00F420FF3F5C
:00000001FF
