:020000040000FA
:060000000A128A110C280F
:10000800FE00030EF0000A08F1000A128A114D28BA
:100018000A128A110F28F20183010A128A11442850
:100028008316031788018901831603138501073096
:1000380086008701880189018312031385018601DF
:10004800870188018901831603130F088F396038E7
:100058008F000F14831203131008CF392038900033
:100068003C308F00AF308E001010831603130C1431
:10007800831203130C100B170B108B158B1708002A
:100088000A128A1114200A128A1149280A128A119E
:100098000C2871088A00700E8300FE0E7E0E09007F
:04400E00F420FF3F5C
:00000001FF
