:020000040000FA
:060000000A128A110C280F
:10000800FE00030EF1000A08F2000A128A1167289E
:100018000A128A110F28F501F601F70183010A1265
:100028008A1116280A128A11AA200A128A110A307D
:100038007602031C202821284E280130F30073087B
:10004800F507F6014E284F3083120313850001305F
:1000580089001B285B308312031385000230890056
:100068001B280630831203138500023089001B28E1
:100078003F30831203138500043089007714101071
:100088003C308F00AF308E00F50101308700013021
:1000980088001B287508F300F4017408003A031956
:1000A80056281B287308013A03192728033A03190D
:1000B8002E28013A03193528073A03193C281B282A
:1000C8000A128A110C28831203130C1C6C286D2841
:1000D80076280130F0007008F6073C308F00AF300A
:1000E8008E000C100B1C79287A288828061C7D287D
:1000F8007E288828771010188228832887280130BE
:10010800F0007008F50710140B1C8B288C28952814
:10011800861C8F2890289528771C93289428952842
:1001280007080B1C98289928A228061D9C289D289A
:10013800A228771CA028A128A22808080B1072085A
:100148008A00710E8300FE0E7E0E090083160317C7
:10015800880189018316031385010730860087010A
:1001680088018901831203138501860187018801AB
:100178008901F6017030831603138F040F1483125C
:1001880003131008CF39203890003C308F00AF306F
:100198008E001010831603131614961416150C14DB
:1001A800831203130C100B170B108B158B170800F9
:04400E00F420FF3F5C
:00000001FF
