:020000040000FA
:060000000A128A110C280F
:10000800FE00030EF1000A08F2000A128A1196286F
:100018000A128A110F28F501F601F70183010A1265
:100028008A1116280A128A11E8200A128A110A303F
:100038007602031C202821282A28F7182428252896
:100048002A280130F3007308F507F601771D2D28DB
:100058002E287D2883120313070808020318352861
:100068003628452880300702031C3B283C2858289E
:100078007710F7100630850006171010F601F50105
:1000880058280808070203184A284B28582880309F
:100098000802031C5028512858287710F7105B30A5
:1000A800850086171010422877117D284F3083125B
:1000B80003138500013089001B285B30831203136A
:1000C8008500023089001B2806308312031385003F
:1000D800023089001B283F30831203138500043047
:1000E80089007714F714F501013087000130880082
:1000F8001B287508F300F4017408003A03198528D1
:100108001B287308013A03195A28033A031961286E
:10011800013A03196828073A03196F281B280A129D
:100128008A110C28831203130C1C9B289C28AA28CC
:100138000130F0007008F607F71CA328A428A528AA
:1001480077153C308F00AF308E000C100B1CAD289B
:10015800AE28C028061CB128B228C028771086010E
:100168001018B728B828BC280130F0007008F50727
:100178001014F601870188010B1CC328C428D02855
:10018800861CC728C828D028771CCB28CC28D0287C
:100198000708F000700787000B1CD328D428E02834
:1001A800061DD728D828E028771CDB28DC28E0287B
:1001B8000808F000700788000B1072088A00710E9A
:1001C8008300FE0E7E0E090083160317880189013D
:1001D800831603138501073086008701880189018A
:1001E8008312031385018601870188018901F601BD
:1001F8007030831603138F040F148312031310082F
:10020800CF39203890003C308F00AF308E0010106E
:10021800831603131614961416150C14831203135D
:0C0228000C100B170B108B158B17080027
:04400E00F420FF3F5C
:00000001FF
