:020000040000FA
:060000000A128A110C280F
:10000800FE00030EF1000A08F2000A128A11B9294B
:100018000A128A110F28F801F901FA018312031351
:10002800B601B701B801B90183010A128A111C2867
:100038000A128A11DE210A128A11F301F401F5016C
:1000480020300A128A113D220A128A1183120313E0
:10005800071131300A128A1190220A128A110A12E3
:100068008A1186220A128A1183120313860006084F
:10007800B3003308FA001A3083120313B400F730C0
:10008800B300B30B4528B40B45284A2832300A126E
:100098008A1190220A128A110A128A1186220A12D9
:1000A8008A118312031388000808B3003308F90083
:1000B8001A3083120313B400F730B300B30B62286D
:1000C800B40B6228672883120313071509300A1234
:1000D8008A1102220A128A117A300A128A1186219A
:1000E8000A128A1113300A128A1102220A128A117C
:1000F80001300A128A1102220A128A1179300A1270
:100108008A1186210A128A1110300A128A110222D3
:100118000A128A11033083120313B5008A30B4001F
:100128005530B300B30B9628B40B9628B50B962818
:100138002A280A128A110C2883120313AA002A08F3
:10014800A7002708AB002408840083138001250832
:1001580084008001260884008001DD286430F300D3
:100168000030F4002B08A700A8012708F50028088C
:10017800F6000A128A111D210A128A1173088312C5
:100188000313A900260884002908831380009C30E3
:10019800A7002708F3002608840000080A128A111D
:1001A80053220A128A11831203132B07A800280866
:1001B800AB0064302B020318E228E328B2280F2989
:1001C8000A30F3000030F4002B08A700A801270824
:1001D800F5002808F6000A128A111D210A128A1150
:1001E800730883120313A9002508840029088313C0
:1001F8008000F630A7002708F300250884000008CF
:100208000A128A1153220A128A11831203132B0726
:10021800A8002808AB000A302B0203181429152956
:10022800E4282B08A70024088400270883138000EB
:10023800080083120313A101F41F232924292B2961
:10024800F309F409F30A0319F40AA101A10AF61F34
:100258002E292F293829F509F609F50A0319F60A6E
:100268000130F7007708A106A201A30173087404FE
:1002780003193F2940297729A001A00A4E290130F6
:100288000310F30DF40DFF3E031D44290130F70060
:100298007708A007F41F5129522943290130031078
:1002A800A20DA30DFF3E031D532974087602031DFA
:1002B8005F2973087502031C622963296A29730878
:1002C800F5027408031CF603F60222140130031029
:1002D800F40CF30CFF3E031D6B290130A002031D33
:1002E800762977295229210803197B297C29812914
:1002F800A209A309A20A0319A30A2308F4002208E1
:10030800F300080083120313AF003030AC002C0850
:10031800A4003230AD002D08A5003130AE002E0803
:10032800A6002F08840000080A128A11A0200A12C9
:100338008A11831203133108303E0A128A117A2275
:100348000A128A11831203133208303E0A128A11E4
:100358007A220A128A11831203133008303E0A12D5
:100368008A117A220A128A110800831203138C1E3A
:10037800BE29BF29D7291A08F0007008F8003130C3
:100388007806031DC829C929CC290F308500D6292C
:1003980032307806031DD129D229D529F0308500BD
:1003A800D62985018C1272088A00710E8300FE0E10
:1003B8007E0E09008316031788018901831603132B
:1003C80085018601071107138717880189018312A0
:1003D800031385018601870188018901703083161E
:1003E80003138F040F140A128A1168220A128A1141
:1003F8008B170B17831603138C160800F500142AA5
:10040800750884000A128A1121220A128A110A1216
:100418008A117A220A128A110130F4007408F50749
:10042800750884000A128A1121220A128A11003AD8
:10043800031D1F2A202A042A080002308A00040803
:10044800840A820700340D3450344F345434323423
:100458003A342034003450344F34543431343A343C
:10046800203400340D340D340D340D3400342E3462
:100478000034F600831603138712761D442A452A92
:10048800492A7508940087154D2A73087504940045
:100498008711760874048312031394000800F60089
:1004A800F501761C582A592A5D2A7308F400740845
:1004B800F5070310F30D0310F60C7608031D652AE3
:1004C800662A552A75080800831603130713871729
:1004D8000C309900181198168312031318168316F6
:1004E800031318128312031398170800F3007308F4
:1004F80083120313990083160313981C842A852AF0
:100508007F2A080083160313141C8B2A8C2A862A38
:100518008312031313080800F300730883120313EC
:040528009300080034
:04400E00F420FF3F5C
:00000001FF
