:020000040000FA
:060000000A128A110C280F
:10000800FE00030EF1000A08F2000A128A15372EC4
:100018000A128A110F28FA0183120313DF01E00183
:10002800E101E201E301E401E501E601E701E8019C
:10003800E901EA01EB01EC0183010A128A15692F33
:10004800831203132D088039B2003208B7002D0837
:10005800B2003207B3003308BD00AC1F342835287E
:1000680036283D143D0803193A283B284A283D0AFA
:10007800031D3F28402848280030AD000030AC0060
:100088000030AB000030AA00AC1752280030AD0099
:100098000030AC000030AB000030AA0031088039D5
:1000A800B2003208B7063108B2003207B30033088D
:1000B800B800B01F6028612862283814380803196E
:1000C800662867287628380A031D6B286C28742848
:1000D8000030B1000030B0000030AF000030AE009A
:1000E800B0177E280030B1000030B0000030AF00FB
:1000F8000030AE00380803198228832888283D0874
:10010800031D8728882891280030AD000030AC00F6
:100118000030AB000030AA00842B2A08B200320855
:10012800F30030080A128A158F240A128A117408FB
:1001380083120313C3007308C2004208B200B3015C
:10014800B401B5013508BC003408BB003308BA0057
:100158003208B9004308B200B301B401B50135084B
:10016800C1003408C0003308BF003208BE002B08A5
:10017800B2003208F3002F080A128A158F240A12D7
:100188008A11740883120313C3007308C20042085B
:10019800B200B301B401B5013208B907330803113D
:1001A8000318013E0319D928BA07340803110318A4
:1001B800013E0319E028BB07350803110318013E67
:1001C8000319E728BC074308B200B301B401B5011D
:1001D8003208BE07330803110318013E0319F52836
:1001E800BF07340803110318013E0319FC28C00790
:1001F800350803110318013E03190329C1072C0808
:10020800B2003208F3002E080A128A158F240A1247
:100218008A11740883120313C3007308C2004208CA
:10022800B200B301B401B5013208B90733080311AC
:100238000318013E03192129BA07340803110318CA
:10024800013E03192829BB07350803110318013E8D
:1002580003192F29BC074308B200B301B401B50143
:100268003208BE07330803110318013E03193D295C
:10027800BF07340803110318013E03194429C007B6
:10028800350803110318013E03194B29C10708302B
:10029800B2000310B90DBA0DBB0DBC0DB20B4D2940
:1002A8002B08B2003208F3002E080A128A158F2490
:1002B8000A128A11740883120313C3007308C20058
:1002C8004208B2004308B300B401B5013208B907C7
:1002D800330803110318013E03197329BA073408B8
:1002E80003110318013E03197A29BB0735080311C6
:1002F8000318013E03198129BC072A08B2003208F5
:10030800F3002F080A128A158F240A128A1174081A
:1003180083120313C3007308C2004208B2004308E3
:10032800B300B401B5013208B90733080311031843
:10033800013E0319A029BA07340803110318013E26
:100348000319A729BB07350803110318013E031930
:10035800AE29BC070830B2000310B90DBA0DBB0DA9
:10036800BC0DB20BB0292A08B2003208F3002E08DF
:100378000A128A158F240A128A1174088312031329
:10038800C3007308C2004208B2004308B300B401B6
:10039800B5013208B907330803110318013E0319E0
:1003A800D629BA07340803110318013E0319DD29B9
:1003B800BB07350803110318013E0319E429BC07DC
:1003C8002B08B2003208F30030080A128A158F246D
:1003D8000A128A11740883120313C3007308C20037
:1003E8004208B2004308B300B401B5013208BE07A1
:1003F800330803110318013E0319032ABF07340801
:1004080003110318013E03190A2AC007350803110E
:100418000318013E0319112AC1072C08B20032083B
:10042800F3002F080A128A158F240A128A117408F9
:1004380083120313C3007308C2004208B2004308C2
:10044800B300B401B5013208BE073308031103181D
:10045800013E0319302ABF07340803110318013E6F
:100468000319372AC007350803110318013E031979
:100478003E2AC1072C08B2003208F30030080A12DD
:100488008A158F240A128A11740883120313C30071
:100498007308C2004208B2004308B300B401B501B2
:1004A80008300310B20DB30DB40DB50DFF3E031D9A
:1004B800552A3208BE07330803110318013E0319F1
:1004C800662ABF07340803110318013E03196D2A71
:1004D800C007350803110318013E0319742AC10720
:1004E8003908B2003A08B3003B08B4003C08B5002C
:1004F80018300310B50CB40CB30CB20CFF3E031D3E
:100508007D2A3208BE07330803110318013E031978
:100518008E2ABF07340803110318013E0319952AD0
:10052800C007350803110318013E03199C2AC107A7
:100538000830B2000310B90DBA0DBB0DBC0DB20BDB
:100548009E2A3D083807B200B301B30D3208823E37
:10055800C20033080318013EFF3EC300D02A013011
:10056800B2000310BE0DBF0DC00DC10DB20BB52AF0
:10057800BC1FBF2AC02AC12A3E140130B200031092
:10058800B90DBA0DBB0DBC0DB20BC32AFF30C207A3
:100598000318C30AFF30C307C01FD32AD42AB32ABB
:1005A800B801BC1FD82AD92AF52AFF303905B2006C
:1005B800FF303A05B300FF303B05B4007F303C05FF
:1005C800B50035083404330432040319EC2AED2A43
:1005D800F02AB801B80AF52A3E1CF32AF42AF52AAB
:1005E800ED2A38080319F92AFA2A2B2B0130BE07FD
:1005F800003003180130BF07003003180130C0076E
:10060800003003180130C107411C0B2B0C2B2B2B7E
:100618003E08B2003F08B3004008B4004108B500E6
:100628000130B600350DB50CB40CB30CB20CB60BDA
:10063800162B3508C1003408C0003308BF00320843
:10064800BE000130C2070318C30A0030C3074308BD
:10065800803AFF0080307F02031D342BFF304202B6
:10066800031C372B382B432B7F3083120313C10015
:100678008030C0000030BF000030BE00782B8312ED
:1006880003134308803AFF0080307F02031D4E2B7E
:10069800013042020318512B522B5E2B003083127B
:1006A8000313C1000030C0000030BF000030BE009E
:1006B800B701782B831203134208B2003208BD0039
:1006C800FF30BE05FF30BF057F30C0050030C105D3
:1006D8003D1C6F2B702B712BC0173D08B200031007
:1006E800320CB3003308C1003708B2003208C10425
:1006F8004108AD004008AC003F08AB003E08AA0026
:1007080008008312031323088039A8002808F3007F
:100718002308A8002807A9002908F500A21F952B7F
:10072800962B972B7514750803199B2B9C2BAC2BB8
:10073800750A031DA02BA12BA92B0030A3000030A4
:10074800A2000030A1000030A000A217A301B42B22
:100758000030A3000030A2000030A1000030A0004B
:1007680027088039A8002808F400740873060319BC
:10077800BE2BBF2BC02B73172708A8002807A9007A
:100788002908F400A61FC92BCA2BCB2B7414740894
:100798000319CF2BD02BE02B740A031DD42BD52B98
:1007A800DD2B0030A7000030A6000030A500003087
:1007B800A400A617A701E82B0030A7000030A60068
:1007C8000030A5000030A400750874020318ED2B52
:1007D800EE2B322C731FF12BF22BF62B8030A80056
:1007E8002808F3067508A8002808F6007408A80069
:1007F8002808F5007608A8002808F4002008A800B2
:100808002808F6002408A8002808A0007608A800F0
:100818002808A4002108A8002808F6002508A80030
:100828002808A1007608A8002808A5002208A80022
:100838002808F6002608A8002808A2007608A800BC
:100848002808A6002308A8002808F6002708A800FA
:100858002808A3007608A8002808A700F60174084D
:10086800A800A9012908AB0075082802AA00031CE2
:10087800AB032B08803AFF0080307F02031D462C13
:100888001A302A02031C492C4A2C8B2C831203137E
:100898002308220421042004031D532C552C013065
:1008A800562C0030A8002808F6000030A3000030BD
:1008B800A2000030A1000030A0007408A800280899
:1008C800F500912C761C692C6A2C752C76088312FD
:1008D8000313A8000310280C0138A9002908F60002
:1008E800772C0310F60C83120313201C7C2C7D2C10
:1008F8007E2CF6170130A800230DA30CA20CA10C26
:10090800A00CA80B802C0130A8002808F507740853
:100918007502031C902C912C662C731B942C952C1F
:10092800E42C7508031D992C9A2CA52C00308312F1
:100938000313A3000030A2000030A1000030A00083
:10094800142E831203132408A00725080311031883
:10095800013E0319B02CA107260803110318013E14
:100968000319B72CA207270803110318013E03191E
:10097800BE2CA307231CC12CC22C9A2D761CC52C77
:10098800C62CCF2C7608A8000310280C0138A90023
:100998002908F600D12C0310F60C201CD42CD52CD9
:1009A800D62CF6170130A800230DA30CA20CA10C1D
:1009B800A00CA80BD82C0130A8002808F5079A2D00
:1009C800831203132308803AFF002708803A7F0226
:1009D800031DF82C26082202031DF82C25082102E5
:1009E800031DF82C240820020318FB2CFC2C542D82
:1009F800FF30A800FF30A900FF30AA00FF30AB008D
:100A08002408AC002508AD002608AE002708AF0072
:100A18002008AC022108031C210F132D142DAD0250
:100A28002208031C220F192D1A2DAE022308031CBD
:100A3800230F1F2D202DAF022C08A8072D080318FF
:100A48002D0F272D282DA9072E0803182E0F2D2D21
:100A58002E2DAA072F0803182F0AAB072B08A3006F
:100A68002A08A2002908A1002808A0008030A800B0
:100A78002808F306F609F60A7608031D442D452DC5
:100A8800622D0130A007003003180130A1070030A3
:100A980003180130A207003003180130A307622DA4
:100AA8002408A0022508031C250FA1022608031C00
:100AB800260FA2022708031C270FA30223082204DB
:100AC80021042004031D692D6A2D962D7608031D27
:100AD8006E2D6F2D962D0030A3000030A20000303F
:100AE800A1000030A000142E0130A8000310A00DB2
:100AF800A10DA20DA30DA80B7A2DF61F842D852D0F
:100B0800862D2014761C892D8A2D8D2D0314F60D23
:100B18008F2D0310F60D75080319932D942D962D1E
:100B28000130F502A21F992D9A2D782DF401F61F98
:100B38009E2D9F2DAD2D76087F390319A42DA52D47
:100B4800A82DF401F40AAD2D201CAB2DAC2DAD2D34
:100B5800A52D74080319B12DB22DE62D0130A0077B
:100B6800003003180130A107003003180130A20734
:100B7800003003180130A307231CC32DC42DE62D14
:100B88002008A8002108A9002208AA002308AB0011
:100B98000130AC002B0DAB0CAA0CA90CA80CAC0BAB
:100BA800CE2D2B08A3002A08A2002908A100280896
:100BB800A000750A0319E12DE22DE62D0130A800E9
:100BC8002808F507750A0319EA2DEB2DF02D75088D
:100BD800031DEF2DF02DFE2D0030A3000030A200E4
:100BE8000030A1000030A0007508031DFC2DFD2D6C
:100BF800FE2DF301751C012E022E042EA217082EBD
:100C08007F30A8002808A2057508A8000310280C42
:100C1800A9002908A300F31F122E132E142EA317C0
:100C2800080083120313A400240803191C2E1D2E88
:100C3800312EF61F202E212E312E7309A60074099D
:100C4800A7007509A8007609A900A60A0319A70A2A
:100C58000319A80A0319A90A392E7608A9007508E4
:100C6800A8007408A7007308A60076087504740421
:100C78007304031D402E412E4A2E0030F60000302A
:100C8800F5000030F4000030F300D02E9630A000BC
:100C98002008A5005C2E0130A0002008A50701301F
:100CA8000310A90CA80CA70CA60CFF3E031D542E7C
:100CB800FE302905031D612E622E4F2E7E2E013037
:100CC800A0002008A5070130A6070030031801304E
:100CD800A707003003180130A807003003180130B7
:100CE800A90701300310A90CA80CA70CA60CFF3EFD
:100CF800031D762EFF302905031D832E842E632EB7
:100D0800902E0130A5020130A0000310A60DA70DFA
:100D1800A80DA90DA00B892EA81B932E942E9A2EF0
:100D2800023025020318992E9A2E852E25189D2EFD
:100D38009E2EA62EFF30A605FF30A7057F30A805FA
:100D4800FF30A9050310A50C2508A000A101A201E8
:100D5800A30118300310A00DA10DA20DA30DFF3E95
:100D6800031DAE2E2008A6042108A7042208A80403
:100D78002308A90424080319C22EC32EC82EF61F5F
:100D8800C62EC72EC82EA9172908F6002808F50070
:100D98002708F4002608F3000800831203135008FC
:100DA800C7004F08C6004E08C5004D08C4000A1207
:100DB8008A15ED260A128A11831203134408D100FA
:100DC8005108DA005A08D100D201D301D4015408DD
:100DD800F6005308F5005208F4005108F3000030FB
:100DE8000A128A1115260A128A1176088312031329
:100DF800B3007508B2007408B1007308B000500859
:100E0800B7004F08B6004E08B5004D08B4000A12E6
:100E18008A156B240A128A11831203133308D80027
:100E28003208D7003108D6003008D5005808B1007C
:100E38005708B0005608AF005508AE004230AD0064
:100E4800C830AC000030AB000030AA000A128A118A
:100E580024200A128A11831203132D08C7002C08B4
:100E6800C6002B08C5002A08C4000A128A15ED26F8
:100E78000A128A11831203134408D1005108D900B9
:100E88005B30D1005108F8005C30D2005208F900FC
:100E980059080A128A15A5250A128A118312031302
:100EA8005A08303E0A128A15D2230A128A111F30B4
:100EB8000A128A1529240A128A11831203135C085C
:100EC800303E0A128A15D2230A128A11831203139A
:100ED8005B08303E0A128A15D2230A128A111D3085
:100EE8000A128A1529240A128A110800F8007808BB
:100EF80083120313A7002708F9002408840083132A
:100F08008001250884008001260884008001B72F0D
:100F18006430F3000030F4007908A700A80127081E
:100F2800F5002808F6000A128A1584260A128A1182
:100F3800730883120313A900260884002908831361
:100F480080009C30A7002708F300260884000008CA
:100F58000A128A1514240A128A11790783120313B4
:100F6800A8002808F900643079020318BC2FBD2FA7
:100F78008C2FE92F0A30F3000030F4007908A7001D
:100F8800A8012708F5002808F6000A128A15842601
:100F98000A128A11730883120313A9002508840012
:100FA800290883138000F630A7002708F3002508D6
:100FB800840000080A128A1514240A128A11790773
:100FC80083120313A8002808F9000A3079020318CD
:100FD800EE2FEF2FBE2F7908A700240884002708DA
:100FE80083138000080001300A128A1500240A12AF
:040FF8008A11080052
:1010000008308A000408840A8207003450344F34C0
:10101000543431343A3420340D34003450344F34A5
:10102000543432343A3420340D340034553441349D
:10103000523454343A3420340D3400340D340D34E9
:0C1040000D340D340D3400342E34003417
:1017A400F300730883120313990083160313981C20
:1017B400DC2BDD2BD72B0800F40083120313071452
:1017C4007408880087141A30F300F30BE72B000029
:1017D4008312031387100800831603130713871754
:1017E4000C309900181198168312031318168316D7
:1017F400031318128312031398170800F5008312B9
:10180400031307107508880087140B30F400623046
:10181400F300F30B0B2CF40B0B2C000083120313BB
:1018240087100800F600F501761C192C1A2C1E2CC2
:101834007308F4007408F5070310F30D0310F60C95
:101844007608031D262C272C162C75080800F50095
:101854003B2C750884000A128A1500200A128A1586
:101864000A128A15D2230A128A150130F400740868
:10187400F507750884000A128A1500200A128A15D1
:10188400003A031D462C472C2B2C0800F800780343
:10189400031D4D2C4E2C592C76087F3EF7007708FB
:1018A400F90079080A128A1500240A128A150230EE
:1018B4007806031D5E2C5F2C6A2C7608BF3EF70069
:1018C4007708F90079080A128A1500240A128A1581
:1018D4000800803083120313B3063708A3003608C8
:1018E400A2003508A1003408A0003308A70032087C
:1018F400A6003108A5003008A4000A128A11852325
:101904000A128A15831203132308B3002208B200B3
:101914002108B1002008B000080083120313A400BA
:10192400A001A1017308F500F6017508A20076086C
:10193400A300241C9E2C9F2CA52C2208A00703186E
:10194400A10A2308A10701300310A20DA30DFF3E35
:10195400031DA62C0310A40C2408031DB22CB32CC5
:101964009B2C2108F4002008F300080083120313C1
:10197400AD002E30AA002A08A4003030AB002B089A
:10198400A5002F30AC002C08A6002D080A128A11DD
:101994007A270A128A15831203132F08303E0A127B
:1019A4008A15D2230A128A15831203133008303E93
:1019B4000A128A15D2230A128A15831203132E08D7
:1019C400303E0A128A15D2230A128A1508000330FF
:1019D40083160317880089010330831603138500D7
:1019E4008601870188018901831203138501860119
:1019F4008701880189010A128A15EE230A128A15C1
:101A04007030831603138F040F148B170B170B11ED
:101A14008B168C1681128111011581140110F301AA
:101A240000300A128A1560250A128A1583120313DC
:101A34000C13831603130C170800F7003C308312B1
:101A44000313AD00A030AC00A530AB002730AA00D2
:101A54007708840083130008C500C601C701C801C4
:101A64004808F6004708F5004608F4004508F30066
:101A740001300A128A1115260A128A157608831271
:101A84000313B1007508B0007408AF007308AE000A
:101A94000A128A1124200A128A1583120313440895
:101AA40084002A0883138000840A2B088000840A97
:101AB4002C088000840A2D0880000800F6007A2D86
:101AC4003F30831203139F05902D831203131F08C5
:101AD4003F3940389F00902D831203131F083F396C
:101AE40080389F00902DC030831203139F04902DE3
:101AF400831603130F0E0739F400F5017508003A35
:101B04000319852D752D7408043A0319622D023AC0
:101B14000319672D013A03196E2D752D7608F4000B
:101B2400F40DF40D1F087406C33974069F009F104A
:101B34001F14730C83160313031C9F1303189F179E
:101B44009F121F12080083120313A7002708A40082
:101B54002408A8007808840083138001790884008D
:101B64008001DF2D0A30F3000030F4002808A400BF
:101B7400A5012408F5002508F6000A128A15842612
:101B84000A128A15730883120313A60079088400C5
:101B9400260883138000F630A4002408F300790893
:101BA400840000080A128A1514240A128A15831262
:101BB40003132807A5002508A8000A3028020318E3
:101BC400E42DE52DB42D2808A40078088400240809
:101BD40083138000080083120313071088018230E6
:101BE400F700DD30F600F60BF52DF70BF52DFA2D89
:101BF40030300A128A1500240A128A150D30F700B3
:101C0400FB30F600F60B042EF70B042E092E3030B1
:101C14000A128A1500240A128A150D30F700FB30C7
:101C2400F600F60B132EF70B132E182E30300A1273
:101C34008A1500240A128A1538300A128A150024DB
:101C44000A128A1506300A128A1500240A128A1505
:101C54000E300A128A1500240A128A1501300A125B
:101C64008A1500240A128A150800831203138C1E95
:101C74003C2E3D2E542E1A08F0007008FA002B302A
:101C84007A06031D462E472E4B2E0130F0007008B5
:101C9400E2072D307A06031D502E512E532E0130AB
:101CA400E2028C120C1F572E582E732E03101F1D88
:101CB400031403185E2E622E831203131F15652E60
:101CC400831203131F110C131F1D692E6A2E6F2E0E
:101CD4001E08F0007008EC00732E1E08F000700857
:101CE400EB000B1D762E772E7D2E9F187A2E7B2EE1
:101CF4007C2E9F140B1172088A00710E8300FE0E55
:101D04007E0E090083120313A101F41F8A2E8B2E69
:101D1400922EF309F409F30A0319F40AA101A10AA2
:101D2400F61F952E962E9F2EF509F609F50A03192E
:101D3400F60A0130F7007708A106A201A30173088F
:101D440074040319A62EA72EDE2EA001A00AB52E18
:101D540001300310F30DF40DFF3E031DAB2E0130D3
:101D6400F7007708A007F41FB82EB92EAA2E013069
:101D74000310A20DA30DFF3E031DBA2E74087602B4
:101D8400031DC62E73087502031CC92ECA2ED12E3C
:101D94007308F5027408031CF603F60222140130DA
:101DA4000310F40CF30CFF3E031DD22E0130A002ED
:101DB400031DDD2EDE2EB92E21080319E22EE32E9B
:101DC400E82EA209A309A20A0319A30A2308F4000E
:101DD4002208F3000800031083120313460D470D75
:101DE400C8004808F8007808031DF92EFA2E032FBE
:101DF4000030C7000030C6000030C5000030C40009
:101E0400682F4408C8004508C9004608CA004708A6
:101E1400CB001F300310CB0CCA0CC90CC80CFF3EFE
:101E2400031D0C2F4808CC004C08F700C617FF30E0
:101E3400C405FF30C505FF30C6050030C705963020
:101E4400F802F81F262F272F412F7808803A973E53
:101E540003182D2F2E2F2F2FFA2E01300310C70C0D
:101E6400C60CC50CC40CFF3E031D302F0130C80046
:101E74004808F807031D3F2F402F2F2F582F2030DD
:101E84007802031C462F472F532FFA2E0130C80027
:101E94000310C40DC50DC60DC70DC80B4A2F013064
:101EA400F8027808031D572F582F482F7708031975
:101EB4005C2F5D2F682FC409C509C609C709C40A68
:101EC4000319C50A0319C60A0319C70A08000A1226
:101ED4008A15E9240A128A150A128A15ED250A12AE
:101EE4008A1501300A128A1529240A128A156730C4
:101EF40083120313DC005C08C4006C300A128A15D8
:101F04001F250A128A15831203136A08D000690870
:101F1400CF006808CE006708CD000A128A11D126C6
:101F24000A128A1509300A128A1529240A128A15F6
:101F3400633083120313DC005C08C4006B300A12A4
:101F44008A151F250A128A15831203136608D00006
:101F54006508CF006408CE006308CD000A128A1118
:101F6400D1260A128A1511300A128A1529240A1256
:101F74008A158312031362080A128A15B8240A12F6
:101F84008A1519300A128A1529240A128A150A1286
:101F94008A11F7270A128A15F601F60A01300A1285
:101FA4008A1548240A128A1541300A128A15DE233A
:101FB4000A128A15023083120313DC005C08F6004F
:101FC40001300A128A1548240A128A1542300A126C
:101FD4008A15DE230A128A150B3083120313DE00DE
:101FE4002630DD005D30DC00DC0BF62FDD0BF62F38
:0C1FF400DE0BF62F732F0A128A110C2846
:04400E00F420FF3F5C
:00000001FF
