:020000040000FA
:060000000A128A110C280F
:10000800FE00030EF1000A08F2000A128A15EC2C11
:100018000A128A110F28FA0183135E3084006F30A8
:100028000A128A11F6270A128A1183160313A001ED
:10003800A101A20183010A128A11132E831203134C
:100048002D088039B2003208B7002D08B2003207F7
:10005800B3003308BD00AC1F3228332834283D14C0
:100068003D0803193828392848283D0A031D3D282A
:100078003E2846280030AD000030AC000030AB0010
:100088000030AA00AC1750280030AD000030AC009A
:100098000030AB000030AA0031088039B2003208C5
:1000A800B7063108B2003207B3003308B800B01FF2
:1000B8005E285F28602838143808031964286528E2
:1000C8007428380A031D69286A2872280030B1008C
:1000D8000030B0000030AF000030AE00B0177C2810
:1000E8000030B1000030B0000030AF000030AE008A
:1000F800380803198028812886283D08031D85288B
:1001080086288F280030AD000030AC000030AB00EE
:100118000030AA00822B2A08B2003208F300300807
:100128000A128A1515230A128A11740883120313F6
:10013800C3007308C2004208B200B301B401B5019C
:100148003508BC003408BB003308BA003208B900CF
:100158004308B200B301B401B5013508C100340841
:10016800C0003308BF003208BE002B08B2003208B6
:10017800F3002F080A128A1515230A128A11740827
:1001880083120313C3007308C2004208B200B3010C
:10019800B401B5013208B907330803110318013E49
:1001A8000319D728BA07340803110318013E0319A5
:1001B800DE28BB07350803110318013E0319E5289B
:1001C800BC074308B200B301B401B5013208BE0749
:1001D800330803110318013E0319F328BF07340835
:1001E80003110318013E0319FA28C0073508031143
:1001F8000318013E03190129C1072C08B20032086F
:10020800F3002E080A128A1515230A128A11740897
:1002180083120313C3007308C2004208B200B3017B
:10022800B401B5013208B907330803110318013EB8
:1002380003191F29BA07340803110318013E0319CB
:100248002629BB07350803110318013E03192D2978
:10025800BC074308B200B301B401B5013208BE07B8
:10026800330803110318013E03193B29BF0734085B
:1002780003110318013E03194229C0073508031169
:100288000318013E03194929C1070830B2000310B9
:10029800B90DBA0DBB0DBC0DB20B4B292B08B20022
:1002A8003208F3002E080A128A1515230A128A1139
:1002B800740883120313C3007308C2004208B20013
:1002C8004308B300B401B5013208B9073308031174
:1002D8000318013E03197129BA07340803110318DA
:1002E800013E03197829BB07350803110318013E9D
:1002F80003197F29BC072A08B2003208F3002F0827
:100308000A128A1515230A128A1174088312031314
:10031800C3007308C2004208B2004308B300B40126
:10032800B5013208B907330803110318013E031950
:100338009E29BA07340803110318013E0319A52999
:10034800BB07350803110318013E0319AC29BC0784
:100358000830B2000310B90DBA0DBB0DBC0DB20BBD
:10036800AE292A08B2003208F3002E080A128A15AC
:1003780015230A128A11740883120313C300730821
:10038800C2004208B2004308B300B401B501320804
:10039800B907330803110318013E0319D429BA0712
:1003A800340803110318013E0319DB29BB0735087C
:1003B80003110318013E0319E229BC072B08B200F8
:1003C8003208F30030080A128A1515230A128A1116
:1003D800740883120313C3007308C2004208B200F2
:1003E8004308B300B401B5013208BE07330803114E
:1003F8000318013E0319012ABF0734080311031823
:10040800013E0319082AC007350803110318013EE5
:1004180003190F2AC1072C08B2003208F3002F086D
:100428000A128A1515230A128A11740883120313F3
:10043800C3007308C2004208B2004308B300B40105
:10044800B5013208BE07330803110318013E03192A
:100458002E2ABF07340803110318013E0319352A51
:10046800C007350803110318013E03193C2AC107C8
:100478002C08B2003208F30030080A128A15152336
:100488000A128A11740883120313C3007308C20086
:100498004208B2004308B300B401B50108300310A4
:1004A800B20DB30DB40DB50DFF3E031D532A32082E
:1004B800BE07330803110318013E0319642ABF0756
:1004C800340803110318013E03196B2AC0073508C5
:1004D80003110318013E0319722AC1073908B20033
:1004E8003A08B3003B08B4003C08B50018300310C4
:1004F800B50CB40CB30CB20CFF3E031D7B2A3208BA
:10050800BE07330803110318013E03198C2ABF07DD
:10051800340803110318013E0319932AC00735084C
:1005280003110318013E03199A2AC1070830B200C3
:100538000310B90DBA0DBB0DBC0DB20B9C2A3D08BA
:100548003807B200B301B30D3208823EC200330847
:100558000318013EFF3EC300CE2A0130B20003104B
:10056800BE0DBF0DC00DC10DB20BB32ABC1FBD2AF5
:10057800BE2ABF2A3E140130B2000310B90DBA0DCD
:10058800BB0DBC0DB20BC12AFF30C2070318C30A4A
:10059800FF30C307C01FD12AD22AB12AB801BC1F15
:1005A800D62AD72AF32AFF303905B200FF303A0598
:1005B800B300FF303B05B4007F303C05B50035087B
:1005C8003404330432040319EA2AEB2AEE2AB80168
:1005D800B80AF32A3E1CF12AF22AF32AEB2A380831
:1005E8000319F72AF82A292B0130BE07003003180F
:1005F8000130BF07003003180130C007003003186E
:100608000130C107411C092B0A2B292B3E08B200D7
:100618003F08B3004008B4004108B5000130B600F7
:10062800350DB50CB40CB30CB20CB60B142B350845
:10063800C1003408C0003308BF003208BE000130D2
:10064800C2070318C30A0030C3074308803AFF00F3
:1006580080307F02031D322BFF304202031C352BF2
:10066800362B412B7F3083120313C1008030C0002A
:100678000030BF000030BE00762B831203134308FE
:10068800803AFF0080307F02031D4C2B013042026C
:1006980003184F2B502B5C2B003083120313C1001F
:1006A8000030C0000030BF000030BE00B701762B1C
:1006B800831203134208B2003208BD00FF30BE05A2
:1006C800FF30BF057F30C0050030C1053D1C6D2BD4
:1006D8006E2B6F2BC0173D08B2000310320CB3000D
:1006E8003308C1003708B2003208C1044108AD0020
:1006F8004008AC003F08AB003E08AA00080083127F
:10070800031323088039A8002808F3002308A80049
:100718002807A9002908F500A21F932B942B952BD5
:10072800751475080319992B9A2BAA2B750A031DA2
:100738009E2B9F2BA72B0030A3000030A200003077
:10074800A1000030A000A217A301B22B0030A30023
:100758000030A2000030A1000030A0002708803936
:10076800A8002808F400740873060319BC2BBD2BD5
:10077800BE2B73172708A8002807A9002908F4002A
:10078800A61FC72BC82BC92B741474080319CD2BAB
:10079800CE2BDE2B740A031DD22BD32BDB2B003080
:1007A800A7000030A6000030A5000030A400A6175E
:1007B800A701E62B0030A7000030A6000030A500F6
:1007C8000030A400750874020318EB2BEC2B302CB6
:1007D800731FEF2BF02BF42B8030A8002808F306AA
:1007E8007508A8002808F6007408A8002808F5006D
:1007F8007608A8002808F4002008A8002808F600B1
:100808002408A8002808A0007608A8002808A40042
:100818002108A8002808F6002508A8002808A10033
:100828007608A8002808A5002208A8002808F600CD
:100838002608A8002808A2007608A8002808A6000C
:100848002308A8002808F6002708A8002808A300FD
:100858007608A8002808A700F6017408A800A901CE
:100868002908AB0075082802AA00031CAB032B0853
:10087800803AFF0080307F02031D442C1A302A0280
:10088800031C472C482C892C8312031323082204A9
:1008980021042004031D512C532C0130542C00300A
:1008A800A8002808F6000030A3000030A20000309D
:1008B800A1000030A0007408A8002808F5008F2CBB
:1008C800761C672C682C732C760883120313A800F7
:1008D8000310280C0138A9002908F600752C03100C
:1008E800F60C83120313201C7A2C7B2C7C2CF61715
:1008F8000130A800230DA30CA20CA10CA00CA80B7E
:100908007E2C0130A8002808F50774087502031C1E
:100918008E2C8F2C642C731B922C932CE22C750834
:10092800031D972C982CA32C003083120313A300CB
:100938000030A2000030A1000030A000122E831267
:1009480003132408A007250803110318013E0319FF
:10095800AE2CA107260803110318013E0319B52C74
:10096800A207270803110318013E0319BC2CA3078B
:10097800231CBF2CC02C982D761CC32CC42CCD2C2A
:100988007608A8000310280C0138A9002908F600E9
:10099800CF2C0310F60C201CD22CD32CD42CF617F9
:1009A8000130A800230DA30CA20CA10CA00CA80BCD
:1009B800D62C0130A8002808F507982D83120313B8
:1009C8002308803AFF002708803A7F02031DF62C8F
:1009D80026082202031DF62C25082102031DF62CE9
:1009E800240820020318F92CFA2C522DFF30A800F5
:1009F800FF30A900FF30AA00FF30AB002408AC008C
:100A08002508AD002608AE002708AF002008AC0274
:100A18002108031C210F112D122DAD022208031CE1
:100A2800220F172D182DAE022308031C230F1D2D8E
:100A38001E2DAF022C08A8072D0803182D0F252DF1
:100A4800262DA9072E0803182E0F2B2D2C2DAA07AB
:100A58002F0803182F0AAB072B08A3002A08A200A7
:100A68002908A1002808A0008030A8002808F3065B
:100A7800F609F60A7608031D422D432D602D013034
:100A8800A007003003180130A10700300318013017
:100A9800A207003003180130A307602D2408A00224
:100AA8002508031C250FA1022608031C260FA202F5
:100AB8002708031C270FA30223082204210420046B
:100AC800031D672D682D942D7608031D6C2D6D2D43
:100AD800942D0030A3000030A2000030A1000030A7
:100AE800A000122E0130A8000310A00DA10DA20D28
:100AF800A30DA80B782DF61F822D832D842D20148D
:100B0800761C872D882D8B2D0314F60D8D2D031043
:100B1800F60D75080319912D922D942D0130F502CB
:100B2800A21F972D982D762DF401F61F9C2D9D2D33
:100B3800AB2D76087F390319A22DA32DA62DF4011C
:100B4800F40AAB2D201CA92DAA2DAB2DA32D7408BA
:100B58000319AF2DB02DE42D0130A0070030031884
:100B68000130A107003003180130A2070030031834
:100B78000130A307231CC12DC22DE42D2008A80095
:100B88002108A9002208AA002308AB000130AC0004
:100B98002B0DAB0CAA0CA90CA80CAC0BCC2D2B085C
:100BA800A3002A08A2002908A1002808A000750AA5
:100BB8000319DF2DE02DE42D0130A8002808F507E2
:100BC800750A0319E82DE92DEE2D7508031DED2D85
:100BD800EE2DFC2D0030A3000030A2000030A10053
:100BE8000030A0007508031DFA2DFB2DFC2DF30124
:100BF800751CFF2D002E022EA217062E7F30A8008E
:100C08002808A2057508A8000310280CA9002908BF
:100C1800A300F31F102E112E122EA31708000A127C
:100C28008A159E230A128A110A128A15A2240A1208
:100C38008A1123300A128A15AF220A128A116230E9
:100C480083160313A300230883120313C4006E3012
:100C58000A128A15D4230A128A118312031365080B
:100C6800D0006408CF006308CE006208CD000A12E5
:100C78008A159B260A128A1111300A128A15AF2288
:100C88000A128A115E3083160313A3002308831205
:100C98000313C4006D300A128A15D4230A128A116C
:100CA800831203136108D0006008CF005F08CE00EC
:100CB8005E08CD000A128A159B260A128A111A307C
:100CC8000A128A15AF220A128A116C300A128A1582
:100CD8006A230A128A112B300A128A15AF220A12C5
:100CE8008A11831203136508D0006408CF006308D3
:100CF800CE006208CD00693083160313A3002308D1
:100D080083120313D1000A128A115A270A128A1170
:100D1800831203136108D0006008CF005F08CE007B
:100D28005E08CD00663083160313A30023088312E0
:100D38000313D1000A128A115A270A128A11A03005
:100D480083160313A300230883120313AA006C0855
:100D58000A128A153E230A128A11F601F60A013090
:100D68000A128A15CE220A128A1101300A128A152D
:100D780090220A128A11F601F60A02300A128A151E
:100D8800CE220A128A11831203136908303E0A120E
:100D98008A1545220A128A112E300A128A1545220E
:100DA8000A128A11831203136A08303E0A128A153E
:100DB80045220A128A11831203136B08303E0A1265
:100DC8008A1545220A128A1156300A128A154522B6
:100DD8000A128A11073083160313A3002308F600AA
:100DE80002300A128A15CE220A128A1183120313BC
:100DF8006608303E0A128A1545220A128A112E30D8
:100E08000A128A1545220A128A11831203136708E7
:100E1800303E0A128A1545220A128A1183120313D8
:100E28006808303E0A128A1545220A128A1156307D
:100E38000A128A1545220A128A110D3083160313E5
:100E4800A3002308F60002300A128A15CE220A12DD
:100E58008A11831603132208303E0A128A15452286
:100E68000A128A11831603132108303E0A128A15C2
:100E780045220A128A11831603132008303E0A12EB
:100E88008A1545220A128A11033083160313A50016
:100E98008A30A4005530A300A30B502FA40B502F69
:100EA800A50B502F1D2E0A128A110C28831203132A
:100EB8005008C7004F08C6004E08C5004D08C400BA
:100EC8000A128A15A2250A128A11831203134408EA
:100ED800D2005208DB005B08D2005208DE005B0833
:100EE800D200D301D401D5015508F6005408F50005
:100EF8005308F4005208F30000300A128A154427F8
:100F08000A128A11760883120313B3007508B20017
:100F18007408B1007308B0005008B7004F08B60055
:100F28004E08B5004D08B4000A128A15F1220A12BB
:100F38008A11831203133308D9003208D800310804
:100F4800D7003008D6005908B1005808B000570833
:100F5800AF005608AE004230AD00C830AC000030DB
:100F6800AB000030AA000A128A1122200A128A1144
:100F7800831203132D08C7002C08C6002B08C500D0
:100F88002A08C4000A128A15A2250A128A11831295
:100F980003134408D2005208DA005C30D200520829
:100FA800F8005D30D3005308F9005A080A128A1570
:100FB8005A240A128A11831203135B08D2005108BB
:100FC80084005208831380005D08D200510A84000F
:100FD800520880005C08D2005108023E8400520882
:100FE8008000080064008001840A040603190034A4
:040FF8000406F72FC5
:1010000008308A000408840A8207003453343134DB
:101010003A34203420342034533432343A342034B7
:1010200020342034533433343A3400340A345034C6
:101030004F34543432343A3420340A3400340A34CD
:1010400055344134523454343A3420340A34003460
:1010500050344F34543431343A3420340A34003468
:101060000A340A340A340A340A3400340D340034A1
:041070002E340034E6
:10147200F300730883120313990083160313981C55
:10148200432A442A3E2A0800F40083120313071455
:101492007408880087141A30F300F30B4E2A0000F8
:1014A2008312031387100800831603130713871789
:1014B2000C3099001811981683120313181683160C
:1014C200031318128312031398170800F5008312EE
:1014D200031307107508880087140B30F40062307C
:1014E200F300F30B722AF40B722A00008312031327
:1014F20087100800F600F501761C802A812A852AC9
:101502007308F4007408F5070310F30D0310F60CCA
:101512007608031D8D2A8E2A7D2A75080800F6009A
:10152200A22A760884000A128A1500200A128A1555
:101532000A128A1545220A128A150130F500750829
:10154200F607760884000A128A1500200A128A1504
:10155200003A031DAD2AAE2A922A0800F500C12ADC
:10156200750884000A128A1500200A128A150A12C6
:101572008A1539220A128A150130F4007408F50717
:10158200750884000A128A1500200A128A15003A88
:10159200031DCC2ACD2AB12A0800F8007803031DC6
:1015A200D32AD42ADF2A76087F3EF7007708F9008B
:1015B20079080A128A1567220A128A1502307806F9
:1015C200031DE42AE52AF02A7608BF3EF7007708D1
:1015D200F90079080A128A1567220A128A15080088
:1015E200803083120313B3063708A3003608A20023
:1015F2003508A1003408A0003308A7003208A6006D
:101602003108A5003008A4000A128A1183230A12A5
:101612008A15831203132308B3002208B20021089B
:10162200B1002008B000080083120313A400A00137
:10163200A1017308F500F6017508A2007608A3005F
:10164200241C242B252B2B2B2208A0070318A10ACC
:101652002308A10701300310A20DA30DFF3E031DB5
:101662002C2B0310A40C2408031D382B392B212BFF
:101672002108F4002008F300080083120313AE00CF
:101682002F30AB002B08A4003130AC002C08A50091
:101692003030AD002D08A6002E080A128A151E262B
:1016A2000A128A15831203132F08AB002A0884003A
:1016B2002B08831380003108AB002A0A84002B0810
:1016C20080003008AB002A08023E84002B0880000C
:1016D200080083120313AD002E30AA002A08A400CA
:1016E2003030AB002B08A5002F30AC002C08A60030
:1016F2002D088400831300080A128A151E260A1276
:101702008A15831203132F08303E0A128A153922D2
:101712000A128A15831203133008303E0A128A1500
:1017220039220A128A15831203132E08303E0A1236
:101732008A1539220A128A15080003308316031704
:10174200880089010330831603138500860187010F
:1017520088018901831203138501860187018801AB
:1017620089010A128A1555220A128A1570308316C7
:1017720003138F040F148B170B170B118B168C1678
:1017820081128111011581140110F30100300A1236
:101792008A1515240A128A15831203130C13831651
:1017A20003130C170800F7003C3083120313AD003B
:1017B200A030AC00A530AB002730AA007708840027
:1017C20083130008C500C601C701C8014808F60016
:1017D2004708F5004608F4004508F30001300A12F4
:1017E2008A1544270A128A15760883120313B10058
:1017F2007508B0007408AF007308AE000A128A11AF
:1018020022200A128A1583120313440884002A082C
:1018120083138000840A2B088000840A2C0880002D
:10182200840A2D0880000800F6002F2C3F30831216
:1018320003139F05452C831203131F083F394038B9
:101842009F00452C831203131F083F3980389F00E5
:10185200452CC030831203139F04452C83160313B7
:101862000F0E0739F400F5017508003A03193A2CF6
:101872002A2C7408043A0319172C023A03191C2C57
:10188200013A0319232C2A2C7608F400F40DF40DE6
:101892001F087406C33974069F009F101F14730C2F
:1018A20083160313031C9F1303189F179F121F1203
:1018B200080083120313A7002708A4002408A80025
:1018C2007808840083138001790884008001942CB5
:1018D2000A30F3000030F4002808A400A50124080F
:1018E200F5002508F6000A128A1539250A128A150A
:1018F200730883120313A600790884002608831351
:101902008000F630A4002408F3007908840000085F
:101912000A128A157B220A128A15831203132807D8
:10192200A5002508A8000A3028020318992C9A2C31
:10193200692C2808A40078088400240883138000F6
:10194200080083120313071088018230F700DD308C
:10195200F600F60BAA2CF70BAA2CAF2C30300A1289
:101962008A1567220A128A150D30F700FB30F6003D
:10197200F60BB92CF70BB92CBE2C30300A128A1593
:1019820067220A128A150D30F700FB30F600F60BBB
:10199200C82CF70BC82CCD2C30300A128A156722BE
:1019A2000A128A1538300A128A1567220A128A1513
:1019B20006300A128A1567220A128A150C300A1298
:1019C2008A1567220A128A1501300A128A156722BD
:1019D2000A128A150800831203138C1EF12CF22CB2
:1019E200092D1A08F0007008FA002B307A06031D40
:1019F200FB2CFC2C002D0130F0007008EC072D3080
:101A02007A06031D052D062D082D0130EC028C12DD
:101A12000C1F0C2D0D2D282D03101F1D0314031850
:101A2200132D172D831203131F151A2D831203135F
:101A32001F110C131F1D1E2D1F2D242D1E08F0001B
:101A42007008EE00282D1E08F0007008ED000B1D36
:101A52002B2D2C2D322D9F182F2D302D312D9F14F3
:101A62000B1172088A00710E8300FE0E7E0E0900B1
:101A720083120313A101F41F3F2D402D472DF309BB
:101A8200F409F30A0319F40AA101A10AF61F4A2D67
:101A92004B2D542DF509F609F50A0319F60A013002
:101AA200F7007708A106A201A301730874040319C1
:101AB2005B2D5C2D932DA001A00A6A2D013003102D
:101AC200F30DF40DFF3E031D602D0130F700770882
:101AD200A007F41F6D2D6E2D5F2D01300310A20D96
:101AE200A30DFF3E031D6F2D74087602031D7B2D8F
:101AF20073087502031C7E2D7F2D862D7308F50257
:101B02007408031CF603F602221401300310F40CCD
:101B1200F30CFF3E031D872D0130A002031D922D01
:101B2200932D6E2D21080319972D982D9D2DA20915
:101B3200A309A20A0319A30A2308F4002208F30046
:101B42000800031083120313460D470DC80048080E
:101B5200F8007808031DAE2DAF2DB82D0030C70058
:101B62000030C6000030C5000030C4001D2E4408FD
:101B7200C8004508C9004608CA004708CB001F3004
:101B82000310CB0CCA0CC90CC80CFF3E031DC12D9F
:101B92004808CC004C08F700C617FF30C405FF30D8
:101BA200C505FF30C6050030C7059630F802F81F9C
:101BB200DB2DDC2DF62D7808803A973E0318E22DB6
:101BC200E32DE42DAF2D01300310C70CC60CC50C5C
:101BD200C40CFF3E031DE52D0130C8004808F8077C
:101BE200031DF42DF52DE42D0D2E20307802031C5B
:101BF200FB2DFC2D082EAF2D0130C8000310C40DA3
:101C0200C50DC60DC70DC80BFF2D0130F8027808AF
:101C1200031D0C2E0D2EFD2D77080319112E122EE9
:101C22001D2EC409C509C609C709C40A0319C50A74
:101C32000319C60A0319C70A0800F80078088312B4
:101C42000313A7002708F9002408840083138001E6
:101C52002508840080012608840080015B2E643000
:101C6200F3000030F4007908A700A8012708F50066
:101C72002808F6000A128A1539250A128A157308ED
:101C820083120313A9002608840029088313800005
:101C92009C30A7002708F3002608840000080A12D7
:101CA2008A157B220A128A15790783120313A80068
:101CB2002808F900643079020318602E612E302E54
:101CC2008D2E0A30F3000030F4007908A700A80135
:101CD2002708F5002808F6000A128A1539250A1283
:101CE2008A15730883120313A900250884002908A2
:101CF20083138000F630A7002708F300250884002C
:101D020000080A128A157B220A128A1579078312A1
:101D12000313A8002808F9000A3079020318922E4A
:101D2200932E622E7908A7002408840027088313C3
:101D320080000800831203135008C7004F08C60032
:101D42004E08C5004D08C4000A128A15A2250A12BF
:101D52008A15831203134408D1005108DA005A0885
:101D6200D100D201D301D4015408F6005308F50082
:101D72005208F4005108F30000300A128A15442771
:101D82000A128A15760883120313B3007508B2008B
:101D92007408B1007308B0005008B7004F08B600CD
:101DA2004E08B5004D08B4000A128A15F1220A1233
:101DB2008A15831203133308D8003208D70031087A
:101DC200D6003008D5005808B1005708B0005608B0
:101DD200AF005508AE004230AD00C830AC00003054
:101DE200AB000030AA000A128A1122200A128A15B8
:101DF200831203132D08C7002C08C6002B08C50048
:101E02002A08C4000A128A15A2250A128A15831208
:101E120003134408D1005108D9005B30D1005108A6
:101E2200F8005C30D2005208F90059080A128A15EB
:101E32005A240A128A15831203135A08303E0A12D0
:101E42008A1539220A128A1533300A128A15AF22EC
:101E52000A128A15831203135C08303E0A128A158D
:101E620039220A128A15831203135B08303E0A12C2
:101E72008A1539220A128A1531300A128A15AF22BE
:101E82000A128A15080083120313A40024080319F6
:101E92004B2F4C2F602FF61F4F2F502F602F73099F
:101EA200A6007409A7007509A8007609A900A60A68
:101EB2000319A70A0319A80A0319A90A682F7608A1
:101EC200A9007508A8007408A7007308A600760880
:101ED200750474047304031D6F2F702F792F003063
:101EE200F6000030F5000030F4000030F300FF2F60
:101EF2009630A0002008A5008B2F0130A0002008FA
:101F0200A50701300310A90CA80CA70CA60CFF3ED4
:101F1200031D832FFE302905031D902F912F7E2F45
:101F2200AD2F0130A0002008A5070130A607003020
:101F320003180130A707003003180130A80700304A
:101F420003180130A90701300310A90CA80CA70C33
:101F5200A60CFF3E031DA52FFF302905031DB22F3E
:101F6200B32F922FBF2F0130A5020130A000031022
:101F7200A60DA70DA80DA90DA00BB82FA81BC22F47
:101F8200C32FC92F023025020318C82FC92FB42F1F
:101F92002518CC2FCD2FD52FFF30A605FF30A70552
:101FA2007F30A805FF30A9050310A50C2508A00065
:101FB200A101A201A30118300310A00DA10DA20DD1
:101FC200A30DFF3E031DDD2F2008A6042108A70450
:101FD2002208A8042308A90424080319F12FF22FC8
:101FE200F72FF61FF52FF62FF72FA9172908F6005E
:0E1FF2002808F5002708F4002608F300080070
:04400E00F420FF3F5C
:00000001FF
